{
  "contractName": "DecentralizedPlatform",
  "abi": [
    {
      "inputs": [],
      "stateMutability": "nonpayable",
      "type": "constructor"
    },
    {
      "anonymous": false,
      "inputs": [
        {
          "indexed": false,
          "internalType": "uint256",
          "name": "orderId",
          "type": "uint256"
        },
        {
          "indexed": false,
          "internalType": "address",
          "name": "buyer",
          "type": "address"
        },
        {
          "indexed": false,
          "internalType": "address",
          "name": "seller",
          "type": "address"
        },
        {
          "indexed": false,
          "internalType": "uint256",
          "name": "price",
          "type": "uint256"
        }
      ],
      "name": "AmountPending",
      "type": "event"
    },
    {
      "anonymous": false,
      "inputs": [
        {
          "indexed": false,
          "internalType": "uint256",
          "name": "orderId",
          "type": "uint256"
        },
        {
          "indexed": false,
          "internalType": "address",
          "name": "recipient",
          "type": "address"
        },
        {
          "indexed": false,
          "internalType": "uint256",
          "name": "amount",
          "type": "uint256"
        }
      ],
      "name": "FundsReleased",
      "type": "event"
    },
    {
      "anonymous": false,
      "inputs": [
        {
          "indexed": false,
          "internalType": "uint256",
          "name": "orderId",
          "type": "uint256"
        },
        {
          "indexed": false,
          "internalType": "address",
          "name": "buyer",
          "type": "address"
        },
        {
          "indexed": false,
          "internalType": "address",
          "name": "seller",
          "type": "address"
        }
      ],
      "name": "OrderCanceled",
      "type": "event"
    },
    {
      "anonymous": false,
      "inputs": [
        {
          "indexed": false,
          "internalType": "uint256",
          "name": "orderId",
          "type": "uint256"
        },
        {
          "indexed": false,
          "internalType": "address",
          "name": "buyer",
          "type": "address"
        },
        {
          "indexed": false,
          "internalType": "address",
          "name": "seller",
          "type": "address"
        },
        {
          "indexed": false,
          "internalType": "uint256",
          "name": "price",
          "type": "uint256"
        }
      ],
      "name": "OrderCompleted",
      "type": "event"
    },
    {
      "anonymous": false,
      "inputs": [
        {
          "indexed": false,
          "internalType": "uint256",
          "name": "orderId",
          "type": "uint256"
        },
        {
          "indexed": false,
          "internalType": "address",
          "name": "buyer",
          "type": "address"
        },
        {
          "indexed": false,
          "internalType": "address",
          "name": "seller",
          "type": "address"
        }
      ],
      "name": "OrderDisputed",
      "type": "event"
    },
    {
      "anonymous": false,
      "inputs": [
        {
          "indexed": false,
          "internalType": "uint256",
          "name": "orderId",
          "type": "uint256"
        },
        {
          "indexed": false,
          "internalType": "address",
          "name": "buyer",
          "type": "address"
        },
        {
          "indexed": false,
          "internalType": "address",
          "name": "seller",
          "type": "address"
        },
        {
          "indexed": false,
          "internalType": "uint256",
          "name": "price",
          "type": "uint256"
        }
      ],
      "name": "OrderPlaced",
      "type": "event"
    },
    {
      "inputs": [],
      "name": "RELEASE_DELAY",
      "outputs": [
        {
          "internalType": "uint256",
          "name": "",
          "type": "uint256"
        }
      ],
      "stateMutability": "view",
      "type": "function",
      "constant": true
    },
    {
      "inputs": [],
      "name": "SKILLMESH_FEE_PERCENT",
      "outputs": [
        {
          "internalType": "uint256",
          "name": "",
          "type": "uint256"
        }
      ],
      "stateMutability": "view",
      "type": "function",
      "constant": true
    },
    {
      "inputs": [],
      "name": "orderCount",
      "outputs": [
        {
          "internalType": "uint256",
          "name": "",
          "type": "uint256"
        }
      ],
      "stateMutability": "view",
      "type": "function",
      "constant": true
    },
    {
      "inputs": [
        {
          "internalType": "uint256",
          "name": "",
          "type": "uint256"
        }
      ],
      "name": "orders",
      "outputs": [
        {
          "internalType": "uint256",
          "name": "id",
          "type": "uint256"
        },
        {
          "internalType": "address payable",
          "name": "buyer",
          "type": "address"
        },
        {
          "internalType": "address payable",
          "name": "seller",
          "type": "address"
        },
        {
          "internalType": "string",
          "name": "documentHash",
          "type": "string"
        },
        {
          "internalType": "string",
          "name": "completedFilesHash",
          "type": "string"
        },
        {
          "internalType": "uint256",
          "name": "price",
          "type": "uint256"
        },
        {
          "internalType": "uint256",
          "name": "createdAt",
          "type": "uint256"
        },
        {
          "internalType": "uint256",
          "name": "completedAt",
          "type": "uint256"
        },
        {
          "internalType": "enum DecentralizedPlatform.OrderStatus",
          "name": "status",
          "type": "uint8"
        }
      ],
      "stateMutability": "view",
      "type": "function",
      "constant": true
    },
    {
      "inputs": [],
      "name": "owner",
      "outputs": [
        {
          "internalType": "address",
          "name": "",
          "type": "address"
        }
      ],
      "stateMutability": "view",
      "type": "function",
      "constant": true
    },
    {
      "inputs": [],
      "name": "skillmeshTeam",
      "outputs": [
        {
          "internalType": "address",
          "name": "",
          "type": "address"
        }
      ],
      "stateMutability": "view",
      "type": "function",
      "constant": true
    },
    {
      "inputs": [
        {
          "internalType": "address",
          "name": "",
          "type": "address"
        },
        {
          "internalType": "uint256",
          "name": "",
          "type": "uint256"
        }
      ],
      "name": "userOrders",
      "outputs": [
        {
          "internalType": "uint256",
          "name": "",
          "type": "uint256"
        }
      ],
      "stateMutability": "view",
      "type": "function",
      "constant": true
    },
    {
      "inputs": [
        {
          "internalType": "address payable",
          "name": "_seller",
          "type": "address"
        },
        {
          "internalType": "string",
          "name": "_documentHash",
          "type": "string"
        },
        {
          "internalType": "uint256",
          "name": "_price",
          "type": "uint256"
        }
      ],
      "name": "placeOrder",
      "outputs": [],
      "stateMutability": "payable",
      "type": "function",
      "payable": true
    },
    {
      "inputs": [
        {
          "internalType": "uint256",
          "name": "_orderId",
          "type": "uint256"
        }
      ],
      "name": "readyFromSeller",
      "outputs": [],
      "stateMutability": "nonpayable",
      "type": "function"
    },
    {
      "inputs": [
        {
          "internalType": "uint256",
          "name": "_orderId",
          "type": "uint256"
        }
      ],
      "name": "disputeOrder",
      "outputs": [],
      "stateMutability": "nonpayable",
      "type": "function"
    },
    {
      "inputs": [
        {
          "internalType": "uint256",
          "name": "_orderId",
          "type": "uint256"
        }
      ],
      "name": "releaseFunds",
      "outputs": [],
      "stateMutability": "nonpayable",
      "type": "function"
    },
    {
      "inputs": [
        {
          "internalType": "uint256",
          "name": "_orderId",
          "type": "uint256"
        }
      ],
      "name": "refundToBuyer",
      "outputs": [],
      "stateMutability": "nonpayable",
      "type": "function"
    },
    {
      "inputs": [
        {
          "internalType": "uint256",
          "name": "_orderId",
          "type": "uint256"
        }
      ],
      "name": "releaseToSeller",
      "outputs": [],
      "stateMutability": "nonpayable",
      "type": "function"
    },
    {
      "inputs": [
        {
          "internalType": "uint256",
          "name": "_orderId",
          "type": "uint256"
        }
      ],
      "name": "getOrderDetails",
      "outputs": [
        {
          "components": [
            {
              "internalType": "uint256",
              "name": "id",
              "type": "uint256"
            },
            {
              "internalType": "address payable",
              "name": "buyer",
              "type": "address"
            },
            {
              "internalType": "address payable",
              "name": "seller",
              "type": "address"
            },
            {
              "internalType": "string",
              "name": "documentHash",
              "type": "string"
            },
            {
              "internalType": "string",
              "name": "completedFilesHash",
              "type": "string"
            },
            {
              "internalType": "uint256",
              "name": "price",
              "type": "uint256"
            },
            {
              "internalType": "uint256",
              "name": "createdAt",
              "type": "uint256"
            },
            {
              "internalType": "uint256",
              "name": "completedAt",
              "type": "uint256"
            },
            {
              "internalType": "enum DecentralizedPlatform.OrderStatus",
              "name": "status",
              "type": "uint8"
            }
          ],
          "internalType": "struct DecentralizedPlatform.Order",
          "name": "",
          "type": "tuple"
        }
      ],
      "stateMutability": "view",
      "type": "function",
      "constant": true
    },
    {
      "inputs": [
        {
          "internalType": "address",
          "name": "_user",
          "type": "address"
        }
      ],
      "name": "getUserOrders",
      "outputs": [
        {
          "internalType": "uint256[]",
          "name": "",
          "type": "uint256[]"
        }
      ],
      "stateMutability": "view",
      "type": "function",
      "constant": true
    },
    {
      "inputs": [],
      "name": "withdraw",
      "outputs": [],
      "stateMutability": "nonpayable",
      "type": "function"
    }
  ],
  "bytecode": "0x608060405234801561001057600080fd5b50336000806101000a81548173ffffffffffffffffffffffffffffffffffffffff021916908373ffffffffffffffffffffffffffffffffffffffff16021790555060006002819055506123d8806100686000396000f3fe6080604052600436106100f35760003560e01c80638da5cb5b1161008a578063a85c38ef11610059578063a85c38ef146102f5578063b4050fc81461033a578063d8f71d5314610363578063ec7dd7bb1461038e576100f3565b80638da5cb5b1461024b5780638f99528c14610276578063a09970b2146102a1578063a302e232146102ca576100f3565b806340051ba8116100c657806340051ba81461017f5780634d68282f146101a857806363c69f08146101d1578063856652e91461020e576100f3565b806321d4209c146100f85780632453ffa81461011457806333e233111461013f5780633ccfd60b14610168575b600080fd5b610112600480360381019061010d91906117b8565b6103cb565b005b34801561012057600080fd5b50610129610710565b6040516101369190611836565b60405180910390f35b34801561014b57600080fd5b5061016660048036038101906101619190611851565b610716565b005b34801561017457600080fd5b5061017d610841565b005b34801561018b57600080fd5b506101a660048036038101906101a19190611851565b610938565b005b3480156101b457600080fd5b506101cf60048036038101906101ca9190611851565b6109e5565b005b3480156101dd57600080fd5b506101f860048036038101906101f391906118bc565b610d16565b60405161020591906119a7565b60405180910390f35b34801561021a57600080fd5b50610235600480360381019061023091906119c9565b610dad565b6040516102429190611836565b60405180910390f35b34801561025757600080fd5b50610260610dde565b60405161026d9190611a18565b60405180910390f35b34801561028257600080fd5b5061028b610e02565b6040516102989190611a18565b60405180910390f35b3480156102ad57600080fd5b506102c860048036038101906102c39190611851565b610e28565b005b3480156102d657600080fd5b506102df610ecf565b6040516102ec9190611836565b60405180910390f35b34801561030157600080fd5b5061031c60048036038101906103179190611851565b610ed4565b60405161033199989796959493929190611b41565b60405180910390f35b34801561034657600080fd5b50610361600480360381019061035c9190611851565b61107f565b005b34801561036f57600080fd5b50610378611237565b6040516103859190611836565b60405180910390f35b34801561039a57600080fd5b506103b560048036038101906103b09190611851565b61123c565b6040516103c29190611d10565b60405180910390f35b8273ffffffffffffffffffffffffffffffffffffffff163373ffffffffffffffffffffffffffffffffffffffff1603610439576040517f08c379a000000000000000000000000000000000000000000000000000000000815260040161043090611da4565b60405180910390fd5b8034101561047c576040517f08c379a000000000000000000000000000000000000000000000000000000000815260040161047390611e10565b60405180910390fd5b6002600081548092919061048f90611e5f565b91905055506000600254905060004290506040518061012001604052808381526020013373ffffffffffffffffffffffffffffffffffffffff1681526020018673ffffffffffffffffffffffffffffffffffffffff168152602001858152602001604051806020016040528060008152508152602001848152602001828152602001600081526020016000600481111561052c5761052b611aca565b5b815250600360008481526020019081526020016000206000820151816000015560208201518160010160006101000a81548173ffffffffffffffffffffffffffffffffffffffff021916908373ffffffffffffffffffffffffffffffffffffffff16021790555060408201518160020160006101000a81548173ffffffffffffffffffffffffffffffffffffffff021916908373ffffffffffffffffffffffffffffffffffffffff16021790555060608201518160030190805190602001906105f692919061149d565b50608082015181600401908051906020019061061392919061149d565b5060a0820151816005015560c0820151816006015560e082015181600701556101008201518160080160006101000a81548160ff0219169083600481111561065e5761065d611aca565b5b0217905550905050600460003373ffffffffffffffffffffffffffffffffffffffff1673ffffffffffffffffffffffffffffffffffffffff1681526020019081526020016000208290806001815401808255809150506001900390600052602060002001600090919091909150557faf03488da094bc08f76858b3b2a0c36a13217c95790c77139137fc6e062ba9cd823387866040516107019493929190611f06565b60405180910390a15050505050565b60025481565b60006003600083815260200190815260200160002090506003600481111561074157610740611aca565b5b8160080160009054906101000a900460ff16600481111561076557610764611aca565b5b146107a5576040517f08c379a000000000000000000000000000000000000000000000000000000000815260040161079c90611fbd565b60405180910390fd5b60048160080160006101000a81548160ff021916908360048111156107cd576107cc611aca565b5b02179055503073ffffffffffffffffffffffffffffffffffffffff16634d68282f836040518263ffffffff1660e01b815260040161080b9190611836565b600060405180830381600087803b15801561082557600080fd5b505af1158015610839573d6000803e3d6000fd5b505050505050565b60008054906101000a900473ffffffffffffffffffffffffffffffffffffffff1673ffffffffffffffffffffffffffffffffffffffff163373ffffffffffffffffffffffffffffffffffffffff16146108cf576040517f08c379a00000000000000000000000000000000000000000000000000000000081526004016108c69061204f565b60405180910390fd5b60008054906101000a900473ffffffffffffffffffffffffffffffffffffffff1673ffffffffffffffffffffffffffffffffffffffff166108fc479081150290604051600060405180830381858888f19350505050158015610935573d6000803e3d6000fd5b50565b600060036000838152602001908152602001600020905060018160080160006101000a81548160ff0219169083600481111561097757610976611aca565b5b02179055507f5f5cb355147386555ed6155e2bd6562a423da3c8bd426bee54c9b8f286ec7265828260010160009054906101000a900473ffffffffffffffffffffffffffffffffffffffff163384600501546040516109d9949392919061206f565b60405180910390a15050565b60006003600083815260200190815260200160002090508060020160009054906101000a900473ffffffffffffffffffffffffffffffffffffffff1673ffffffffffffffffffffffffffffffffffffffff163373ffffffffffffffffffffffffffffffffffffffff1603610a8e576040517f08c379a0000000000000000000000000000000000000000000000000000000008152600401610a8590612126565b60405180910390fd5b60016004811115610aa257610aa1611aca565b5b8160080160009054906101000a900460ff166004811115610ac657610ac5611aca565b5b1480610b07575060036004811115610ae157610ae0611aca565b5b8160080160009054906101000a900460ff166004811115610b0557610b04611aca565b5b145b610b46576040517f08c379a0000000000000000000000000000000000000000000000000000000008152600401610b3d906121b8565b60405180910390fd5b60048160080160006101000a81548160ff02191690836004811115610b6e57610b6d611aca565b5b021790555042816007018190555060008160050154905060006064600583610b9691906121d8565b610ba09190612261565b905060008183610bb09190612292565b90508360020160009054906101000a900473ffffffffffffffffffffffffffffffffffffffff1673ffffffffffffffffffffffffffffffffffffffff166108fc829081150290604051600060405180830381858888f19350505050158015610c1c573d6000803e3d6000fd5b50600160009054906101000a900473ffffffffffffffffffffffffffffffffffffffff1673ffffffffffffffffffffffffffffffffffffffff166108fc839081150290604051600060405180830381858888f19350505050158015610c85573d6000803e3d6000fd5b507fd1b71a0b3286e619e8025f84c24e69b5f58bbced221971eafdf23f3da9502605858560010160009054906101000a900473ffffffffffffffffffffffffffffffffffffffff168660020160009054906101000a900473ffffffffffffffffffffffffffffffffffffffff168760050154604051610d0794939291906122c6565b60405180910390a15050505050565b6060600460008373ffffffffffffffffffffffffffffffffffffffff1673ffffffffffffffffffffffffffffffffffffffff168152602001908152602001600020805480602002602001604051908101604052809291908181526020018280548015610da157602002820191906000526020600020905b815481526020019060010190808311610d8d575b50505050509050919050565b60046020528160005260406000208181548110610dc957600080fd5b90600052602060002001600091509150505481565b60008054906101000a900473ffffffffffffffffffffffffffffffffffffffff1681565b600160009054906101000a900473ffffffffffffffffffffffffffffffffffffffff1681565b600060036000838152602001908152602001600020905060038160080160006101000a81548160ff02191690836004811115610e6757610e66611aca565b5b02179055507f11db54667c42cdc1814d1981261a556c4cd342b017dc711d64a598c0200823f982338360020160009054906101000a900473ffffffffffffffffffffffffffffffffffffffff16604051610ec39392919061230b565b60405180910390a15050565b600281565b60036020528060005260406000206000915090508060000154908060010160009054906101000a900473ffffffffffffffffffffffffffffffffffffffff16908060020160009054906101000a900473ffffffffffffffffffffffffffffffffffffffff1690806003018054610f4990612371565b80601f0160208091040260200160405190810160405280929190818152602001828054610f7590612371565b8015610fc25780601f10610f9757610100808354040283529160200191610fc2565b820191906000526020600020905b815481529060010190602001808311610fa557829003601f168201915b505050505090806004018054610fd790612371565b80601f016020809104026020016040519081016040528092919081815260200182805461100390612371565b80156110505780601f1061102557610100808354040283529160200191611050565b820191906000526020600020905b81548152906001019060200180831161103357829003601f168201915b5050505050908060050154908060060154908060070154908060080160009054906101000a900460ff16905089565b6000600360008381526020019081526020016000209050600360048111156110aa576110a9611aca565b5b8160080160009054906101000a900460ff1660048111156110ce576110cd611aca565b5b1461110e576040517f08c379a000000000000000000000000000000000000000000000000000000000815260040161110590611fbd565b60405180910390fd5b60048160080160006101000a81548160ff0219169083600481111561113657611135611aca565b5b02179055508060010160009054906101000a900473ffffffffffffffffffffffffffffffffffffffff1673ffffffffffffffffffffffffffffffffffffffff166108fc82600501549081150290604051600060405180830381858888f193505050501580156111a9573d6000803e3d6000fd5b507fd1b71a0b3286e619e8025f84c24e69b5f58bbced221971eafdf23f3da9502605828260010160009054906101000a900473ffffffffffffffffffffffffffffffffffffffff168360020160009054906101000a900473ffffffffffffffffffffffffffffffffffffffff16846005015460405161122b94939291906122c6565b60405180910390a15050565b600581565b611244611523565b6003600083815260200190815260200160002060405180610120016040529081600082015481526020016001820160009054906101000a900473ffffffffffffffffffffffffffffffffffffffff1673ffffffffffffffffffffffffffffffffffffffff1673ffffffffffffffffffffffffffffffffffffffff1681526020016002820160009054906101000a900473ffffffffffffffffffffffffffffffffffffffff1673ffffffffffffffffffffffffffffffffffffffff1673ffffffffffffffffffffffffffffffffffffffff16815260200160038201805461132990612371565b80601f016020809104026020016040519081016040528092919081815260200182805461135590612371565b80156113a25780601f10611377576101008083540402835291602001916113a2565b820191906000526020600020905b81548152906001019060200180831161138557829003601f168201915b505050505081526020016004820180546113bb90612371565b80601f01602080910402602001604051908101604052809291908181526020018280546113e790612371565b80156114345780601f1061140957610100808354040283529160200191611434565b820191906000526020600020905b81548152906001019060200180831161141757829003601f168201915b505050505081526020016005820154815260200160068201548152602001600782015481526020016008820160009054906101000a900460ff1660048111156114805761147f611aca565b5b600481111561149257611491611aca565b5b815250509050919050565b8280546114a990612371565b90600052602060002090601f0160209004810192826114cb5760008555611512565b82601f106114e457805160ff1916838001178555611512565b82800160010185558215611512579182015b828111156115115782518255916020019190600101906114f6565b5b50905061151f91906115ad565b5090565b60405180610120016040528060008152602001600073ffffffffffffffffffffffffffffffffffffffff168152602001600073ffffffffffffffffffffffffffffffffffffffff1681526020016060815260200160608152602001600081526020016000815260200160008152602001600060048111156115a7576115a6611aca565b5b81525090565b5b808211156115c65760008160009055506001016115ae565b5090565b6000604051905090565b600080fd5b600080fd5b600073ffffffffffffffffffffffffffffffffffffffff82169050919050565b6000611609826115de565b9050919050565b611619816115fe565b811461162457600080fd5b50565b60008135905061163681611610565b92915050565b600080fd5b600080fd5b6000601f19601f8301169050919050565b7f4e487b7100000000000000000000000000000000000000000000000000000000600052604160045260246000fd5b61168f82611646565b810181811067ffffffffffffffff821117156116ae576116ad611657565b5b80604052505050565b60006116c16115ca565b90506116cd8282611686565b919050565b600067ffffffffffffffff8211156116ed576116ec611657565b5b6116f682611646565b9050602081019050919050565b82818337600083830152505050565b6000611725611720846116d2565b6116b7565b90508281526020810184848401111561174157611740611641565b5b61174c848285611703565b509392505050565b600082601f8301126117695761176861163c565b5b8135611779848260208601611712565b91505092915050565b6000819050919050565b61179581611782565b81146117a057600080fd5b50565b6000813590506117b28161178c565b92915050565b6000806000606084860312156117d1576117d06115d4565b5b60006117df86828701611627565b935050602084013567ffffffffffffffff811115611800576117ff6115d9565b5b61180c86828701611754565b925050604061181d868287016117a3565b9150509250925092565b61183081611782565b82525050565b600060208201905061184b6000830184611827565b92915050565b600060208284031215611867576118666115d4565b5b6000611875848285016117a3565b91505092915050565b6000611889826115de565b9050919050565b6118998161187e565b81146118a457600080fd5b50565b6000813590506118b681611890565b92915050565b6000602082840312156118d2576118d16115d4565b5b60006118e0848285016118a7565b91505092915050565b600081519050919050565b600082825260208201905092915050565b6000819050602082019050919050565b61191e81611782565b82525050565b60006119308383611915565b60208301905092915050565b6000602082019050919050565b6000611954826118e9565b61195e81856118f4565b935061196983611905565b8060005b8381101561199a5781516119818882611924565b975061198c8361193c565b92505060018101905061196d565b5085935050505092915050565b600060208201905081810360008301526119c18184611949565b905092915050565b600080604083850312156119e0576119df6115d4565b5b60006119ee858286016118a7565b92505060206119ff858286016117a3565b9150509250929050565b611a128161187e565b82525050565b6000602082019050611a2d6000830184611a09565b92915050565b611a3c816115fe565b82525050565b600081519050919050565b600082825260208201905092915050565b60005b83811015611a7c578082015181840152602081019050611a61565b83811115611a8b576000848401525b50505050565b6000611a9c82611a42565b611aa68185611a4d565b9350611ab6818560208601611a5e565b611abf81611646565b840191505092915050565b7f4e487b7100000000000000000000000000000000000000000000000000000000600052602160045260246000fd5b60058110611b0a57611b09611aca565b5b50565b6000819050611b1b82611af9565b919050565b6000611b2b82611b0d565b9050919050565b611b3b81611b20565b82525050565b600061012082019050611b57600083018c611827565b611b64602083018b611a33565b611b71604083018a611a33565b8181036060830152611b838189611a91565b90508181036080830152611b978188611a91565b9050611ba660a0830187611827565b611bb360c0830186611827565b611bc060e0830185611827565b611bce610100830184611b32565b9a9950505050505050505050565b611be5816115fe565b82525050565b600082825260208201905092915050565b6000611c0782611a42565b611c118185611beb565b9350611c21818560208601611a5e565b611c2a81611646565b840191505092915050565b611c3e81611b20565b82525050565b600061012083016000830151611c5d6000860182611915565b506020830151611c706020860182611bdc565b506040830151611c836040860182611bdc565b5060608301518482036060860152611c9b8282611bfc565b91505060808301518482036080860152611cb58282611bfc565b91505060a0830151611cca60a0860182611915565b5060c0830151611cdd60c0860182611915565b5060e0830151611cf060e0860182611915565b50610100830151611d05610100860182611c35565b508091505092915050565b60006020820190508181036000830152611d2a8184611c44565b905092915050565b7f42757965722063616e6e6f74206265207468652073616d652061732073656c6c60008201527f6572000000000000000000000000000000000000000000000000000000000000602082015250565b6000611d8e602283611a4d565b9150611d9982611d32565b604082019050919050565b60006020820190508181036000830152611dbd81611d81565b9050919050565b7f496e73756666696369656e74207061796d656e7420616d6f756e740000000000600082015250565b6000611dfa601b83611a4d565b9150611e0582611dc4565b602082019050919050565b60006020820190508181036000830152611e2981611ded565b9050919050565b7f4e487b7100000000000000000000000000000000000000000000000000000000600052601160045260246000fd5b6000611e6a82611782565b91507fffffffffffffffffffffffffffffffffffffffffffffffffffffffffffffffff8203611e9c57611e9b611e30565b5b600182019050919050565b6000819050919050565b6000611ecc611ec7611ec2846115de565b611ea7565b6115de565b9050919050565b6000611ede82611eb1565b9050919050565b6000611ef082611ed3565b9050919050565b611f0081611ee5565b82525050565b6000608082019050611f1b6000830187611827565b611f286020830186611a09565b611f356040830185611ef7565b611f426060830184611827565b95945050505050565b7f4f72646572206973206e6f7420696e20612076616c696420737461746520666f60008201527f722072656c656173650000000000000000000000000000000000000000000000602082015250565b6000611fa7602983611a4d565b9150611fb282611f4b565b604082019050919050565b60006020820190508181036000830152611fd681611f9a565b9050919050565b7f4f6e6c79206f776e65722063616e2063616c6c20746869732066756e6374696f60008201527f6e00000000000000000000000000000000000000000000000000000000000000602082015250565b6000612039602183611a4d565b915061204482611fdd565b604082019050919050565b600060208201905081810360008301526120688161202c565b9050919050565b60006080820190506120846000830187611827565b6120916020830186611ef7565b61209e6040830185611a09565b6120ab6060830184611827565b95945050505050565b7f4f6e6c792073656c6c65722063616e20636f6d706c65746520746865206f726460008201527f6572000000000000000000000000000000000000000000000000000000000000602082015250565b6000612110602283611a4d565b915061211b826120b4565b604082019050919050565b6000602082019050818103600083015261213f81612103565b9050919050565b7f4f72646572206973206e6f7420696e20612076616c696420737461746520666f60008201527f7220636f6d706c6574696f6e0000000000000000000000000000000000000000602082015250565b60006121a2602c83611a4d565b91506121ad82612146565b604082019050919050565b600060208201905081810360008301526121d181612195565b9050919050565b60006121e382611782565b91506121ee83611782565b9250817fffffffffffffffffffffffffffffffffffffffffffffffffffffffffffffffff048311821515161561222757612226611e30565b5b828202905092915050565b7f4e487b7100000000000000000000000000000000000000000000000000000000600052601260045260246000fd5b600061226c82611782565b915061227783611782565b92508261228757612286612232565b5b828204905092915050565b600061229d82611782565b91506122a883611782565b9250828210156122bb576122ba611e30565b5b828203905092915050565b60006080820190506122db6000830187611827565b6122e86020830186611ef7565b6122f56040830185611ef7565b6123026060830184611827565b95945050505050565b60006060820190506123206000830186611827565b61232d6020830185611a09565b61233a6040830184611ef7565b949350505050565b7f4e487b7100000000000000000000000000000000000000000000000000000000600052602260045260246000fd5b6000600282049050600182168061238957607f821691505b60208210810361239c5761239b612342565b5b5091905056fea2646970667358221220d042d9e8476f973b023f497f2f1cad4df246d39953573083d63007d690a27d5764736f6c634300080d0033",
  "immutableReferences": {},
  "source": "// SPDX-License-Identifier: MIT\r\npragma solidity ^0.8.0;\r\n\r\ncontract DecentralizedPlatform {\r\n    address public owner;\r\n    address public skillmeshTeam;\r\n    uint public orderCount;\r\n    uint public constant RELEASE_DELAY = 2;\r\n    uint public constant SKILLMESH_FEE_PERCENT = 5;\r\n\r\n    enum OrderStatus { Created, AmountPending, Completed, Disputed, FundsReleased }\r\n\r\n    struct Order {\r\n        uint id;\r\n        address payable buyer;\r\n        address payable seller;\r\n        string documentHash;\r\n        string completedFilesHash;\r\n        uint price;\r\n        uint createdAt;\r\n        uint completedAt;\r\n        OrderStatus status;\r\n    }\r\n\r\n    mapping(uint => Order) public orders;\r\n    mapping(address => uint[]) public userOrders;\r\n\r\n    event OrderPlaced(uint orderId, address buyer, address seller, uint price);\r\n    event OrderCompleted(uint orderId, address buyer, address seller, uint price);\r\n    event AmountPending(uint orderId, address buyer, address seller, uint price);\r\n    event OrderDisputed(uint orderId, address buyer, address seller);\r\n    event OrderCanceled(uint orderId, address buyer, address seller);\r\n    event FundsReleased(uint orderId, address recipient, uint amount);\r\n\r\n    constructor() {\r\n        owner = msg.sender;\r\n        orderCount = 0;\r\n    }\r\n\r\n    modifier onlyOwner() {\r\n        require(msg.sender == owner, \"Only owner can call this function\");\r\n        _;\r\n    }\r\n\r\n    function placeOrder(address payable _seller, string memory _documentHash, uint _price) external payable {\r\n        require(msg.sender != _seller, \"Buyer cannot be the same as seller\");\r\n        require(msg.value >= _price, \"Insufficient payment amount\");\r\n\r\n        orderCount++;\r\n        uint orderId = orderCount;\r\n        uint currentTime = block.timestamp;\r\n\r\n        orders[orderId] = Order(orderId, payable(msg.sender), _seller, _documentHash, \"\", _price, currentTime, 0, OrderStatus.Created);\r\n        userOrders[msg.sender].push(orderId);\r\n\r\n        emit OrderPlaced(orderId, msg.sender, _seller, _price);\r\n    }\r\n\r\n    function readyFromSeller(uint _orderId) external {\r\n        Order storage order = orders[_orderId];\r\n        order.status = OrderStatus.AmountPending;\r\n\r\n        emit AmountPending(_orderId, order.buyer, msg.sender, order.price);\r\n    }\r\n\r\n    function disputeOrder(uint _orderId) external {\r\n        Order storage order = orders[_orderId];\r\n        order.status = OrderStatus.Disputed;\r\n\r\n        emit OrderDisputed(_orderId, msg.sender, order.seller);\r\n    }\r\n\r\n    function releaseFunds(uint _orderId) external {\r\n        Order storage order = orders[_orderId];\r\n        require(msg.sender != order.seller, \"Only seller can complete the order\");\r\n        require(order.status == OrderStatus.AmountPending || order.status == OrderStatus.Disputed, \"Order is not in a valid state for completion\");\r\n\r\n        order.status = OrderStatus.FundsReleased;\r\n        order.completedAt = block.timestamp;\r\n\r\n        // Calculate amount to transfer to seller after deducting Skillmesh fee\r\n        uint amountToSeller = order.price;\r\n        uint feeAmount = (amountToSeller * SKILLMESH_FEE_PERCENT) / 100;\r\n        uint finalAmountToSeller = amountToSeller - feeAmount;\r\n\r\n        // Transfer funds to seller\r\n        payable(order.seller).transfer(finalAmountToSeller);\r\n\r\n        // Transfer fee to Skillmesh team\r\n        payable(skillmeshTeam).transfer(feeAmount);\r\n\r\n        emit OrderCompleted(_orderId, order.buyer, order.seller, order.price);\r\n    }\r\n\r\n    function refundToBuyer(uint _orderId) external {\r\n        Order storage order = orders[_orderId];\r\n        require(order.status == OrderStatus.Disputed, \"Order is not in a valid state for release\");\r\n\r\n        order.status = OrderStatus.FundsReleased;\r\n\r\n        // Refund the buyer\r\n        payable(order.buyer).transfer(order.price);\r\n\r\n        emit OrderCompleted(_orderId, order.buyer, order.seller, order.price);\r\n    }\r\n\r\n    function releaseToSeller(uint _orderId) external {\r\n        Order storage order = orders[_orderId];\r\n        require(order.status == OrderStatus.Disputed, \"Order is not in a valid state for release\");\r\n\r\n        order.status = OrderStatus.FundsReleased;\r\n\r\n        this.releaseFunds(_orderId);\r\n    }\r\n\r\n    function getOrderDetails(uint _orderId) external view returns (Order memory) {\r\n        return orders[_orderId];\r\n    }\r\n\r\n    function getUserOrders(address _user) external view returns (uint[] memory) {\r\n        return userOrders[_user];\r\n    }\r\n\r\n    function withdraw() external onlyOwner {\r\n        payable(owner).transfer(address(this).balance);\r\n    }\r\n}",
  "sourcePath": "E:\\SkillMesh\\smartContract\\contracts\\SkillmeshContract.sol",
  "compiler": {
    "name": "solc",
    "version": "0.8.13+commit.abaa5c0e.Emscripten.clang"
  },
  "schemaVersion": "3.4.16",
  "updatedAt": "2024-05-01T07:06:57.813Z",
  "networkType": "ethereum",
  "devdoc": {
    "kind": "dev",
    "methods": {},
    "version": 1
  },
  "userdoc": {
    "kind": "user",
    "methods": {},
    "version": 1
  }
}