{
  "contractName": "DecentralizedPlatform",
  "abi": [
    {
      "inputs": [],
      "stateMutability": "nonpayable",
      "type": "constructor"
    },
    {
      "anonymous": false,
      "inputs": [
        {
          "indexed": false,
          "internalType": "uint256",
          "name": "orderId",
          "type": "uint256"
        },
        {
          "indexed": false,
          "internalType": "address",
          "name": "buyer",
          "type": "address"
        },
        {
          "indexed": false,
          "internalType": "address",
          "name": "seller",
          "type": "address"
        },
        {
          "indexed": false,
          "internalType": "uint256",
          "name": "price",
          "type": "uint256"
        }
      ],
      "name": "AmountPending",
      "type": "event"
    },
    {
      "anonymous": false,
      "inputs": [
        {
          "indexed": false,
          "internalType": "uint256",
          "name": "orderId",
          "type": "uint256"
        },
        {
          "indexed": false,
          "internalType": "address",
          "name": "recipient",
          "type": "address"
        },
        {
          "indexed": false,
          "internalType": "uint256",
          "name": "amount",
          "type": "uint256"
        }
      ],
      "name": "FundsReleased",
      "type": "event"
    },
    {
      "anonymous": false,
      "inputs": [
        {
          "indexed": false,
          "internalType": "uint256",
          "name": "orderId",
          "type": "uint256"
        },
        {
          "indexed": false,
          "internalType": "address",
          "name": "buyer",
          "type": "address"
        },
        {
          "indexed": false,
          "internalType": "address",
          "name": "seller",
          "type": "address"
        }
      ],
      "name": "OrderCanceled",
      "type": "event"
    },
    {
      "anonymous": false,
      "inputs": [
        {
          "indexed": false,
          "internalType": "uint256",
          "name": "orderId",
          "type": "uint256"
        },
        {
          "indexed": false,
          "internalType": "address",
          "name": "buyer",
          "type": "address"
        },
        {
          "indexed": false,
          "internalType": "address",
          "name": "seller",
          "type": "address"
        },
        {
          "indexed": false,
          "internalType": "uint256",
          "name": "price",
          "type": "uint256"
        }
      ],
      "name": "OrderCompleted",
      "type": "event"
    },
    {
      "anonymous": false,
      "inputs": [
        {
          "indexed": false,
          "internalType": "uint256",
          "name": "orderId",
          "type": "uint256"
        },
        {
          "indexed": false,
          "internalType": "address",
          "name": "buyer",
          "type": "address"
        },
        {
          "indexed": false,
          "internalType": "address",
          "name": "seller",
          "type": "address"
        }
      ],
      "name": "OrderDisputed",
      "type": "event"
    },
    {
      "anonymous": false,
      "inputs": [
        {
          "indexed": false,
          "internalType": "uint256",
          "name": "orderId",
          "type": "uint256"
        },
        {
          "indexed": false,
          "internalType": "address",
          "name": "buyer",
          "type": "address"
        },
        {
          "indexed": false,
          "internalType": "address",
          "name": "seller",
          "type": "address"
        },
        {
          "indexed": false,
          "internalType": "uint256",
          "name": "price",
          "type": "uint256"
        },
        {
          "indexed": false,
          "internalType": "uint256",
          "name": "_gigId",
          "type": "uint256"
        }
      ],
      "name": "OrderPlaced",
      "type": "event"
    },
    {
      "inputs": [],
      "name": "RELEASE_DELAY",
      "outputs": [
        {
          "internalType": "uint256",
          "name": "",
          "type": "uint256"
        }
      ],
      "stateMutability": "view",
      "type": "function"
    },
    {
      "inputs": [],
      "name": "SKILLMESH_FEE_PERCENT",
      "outputs": [
        {
          "internalType": "uint256",
          "name": "",
          "type": "uint256"
        }
      ],
      "stateMutability": "view",
      "type": "function"
    },
    {
      "inputs": [],
      "name": "orderCount",
      "outputs": [
        {
          "internalType": "uint256",
          "name": "",
          "type": "uint256"
        }
      ],
      "stateMutability": "view",
      "type": "function"
    },
    {
      "inputs": [
        {
          "internalType": "uint256",
          "name": "",
          "type": "uint256"
        }
      ],
      "name": "orders",
      "outputs": [
        {
          "internalType": "uint256",
          "name": "id",
          "type": "uint256"
        },
        {
          "internalType": "address payable",
          "name": "buyer",
          "type": "address"
        },
        {
          "internalType": "address payable",
          "name": "seller",
          "type": "address"
        },
        {
          "internalType": "uint256",
          "name": "gigId",
          "type": "uint256"
        },
        {
          "internalType": "uint256",
          "name": "price",
          "type": "uint256"
        },
        {
          "internalType": "uint256",
          "name": "createdAt",
          "type": "uint256"
        },
        {
          "internalType": "uint256",
          "name": "completedAt",
          "type": "uint256"
        },
        {
          "internalType": "enum DecentralizedPlatform.OrderStatus",
          "name": "status",
          "type": "uint8"
        }
      ],
      "stateMutability": "view",
      "type": "function"
    },
    {
      "inputs": [],
      "name": "owner",
      "outputs": [
        {
          "internalType": "address",
          "name": "",
          "type": "address"
        }
      ],
      "stateMutability": "view",
      "type": "function"
    },
    {
      "inputs": [],
      "name": "skillmeshTeam",
      "outputs": [
        {
          "internalType": "address",
          "name": "",
          "type": "address"
        }
      ],
      "stateMutability": "view",
      "type": "function"
    },
    {
      "inputs": [
        {
          "internalType": "address",
          "name": "",
          "type": "address"
        },
        {
          "internalType": "uint256",
          "name": "",
          "type": "uint256"
        }
      ],
      "name": "userOrders",
      "outputs": [
        {
          "internalType": "uint256",
          "name": "",
          "type": "uint256"
        }
      ],
      "stateMutability": "view",
      "type": "function"
    },
    {
      "inputs": [
        {
          "internalType": "address",
          "name": "skillmesh",
          "type": "address"
        }
      ],
      "name": "setSkillMeshAddress",
      "outputs": [],
      "stateMutability": "nonpayable",
      "type": "function"
    },
    {
      "inputs": [
        {
          "internalType": "address payable",
          "name": "_seller",
          "type": "address"
        },
        {
          "internalType": "uint256",
          "name": "_price",
          "type": "uint256"
        },
        {
          "internalType": "uint256",
          "name": "_gigId",
          "type": "uint256"
        }
      ],
      "name": "placeOrder",
      "outputs": [],
      "stateMutability": "payable",
      "type": "function"
    },
    {
      "inputs": [
        {
          "internalType": "uint256",
          "name": "_orderId",
          "type": "uint256"
        }
      ],
      "name": "readyFromSeller",
      "outputs": [],
      "stateMutability": "nonpayable",
      "type": "function"
    },
    {
      "inputs": [
        {
          "internalType": "uint256",
          "name": "_orderId",
          "type": "uint256"
        }
      ],
      "name": "disputeOrder",
      "outputs": [],
      "stateMutability": "nonpayable",
      "type": "function"
    },
    {
      "inputs": [
        {
          "internalType": "uint256",
          "name": "_orderId",
          "type": "uint256"
        }
      ],
      "name": "releaseFunds",
      "outputs": [],
      "stateMutability": "nonpayable",
      "type": "function"
    },
    {
      "inputs": [
        {
          "internalType": "uint256",
          "name": "_orderId",
          "type": "uint256"
        }
      ],
      "name": "refundToBuyer",
      "outputs": [],
      "stateMutability": "nonpayable",
      "type": "function"
    },
    {
      "inputs": [
        {
          "internalType": "uint256",
          "name": "_orderId",
          "type": "uint256"
        }
      ],
      "name": "releaseToSeller",
      "outputs": [],
      "stateMutability": "nonpayable",
      "type": "function"
    },
    {
      "inputs": [
        {
          "internalType": "uint256",
          "name": "_orderId",
          "type": "uint256"
        }
      ],
      "name": "getOrderDetails",
      "outputs": [
        {
          "components": [
            {
              "internalType": "uint256",
              "name": "id",
              "type": "uint256"
            },
            {
              "internalType": "address payable",
              "name": "buyer",
              "type": "address"
            },
            {
              "internalType": "address payable",
              "name": "seller",
              "type": "address"
            },
            {
              "internalType": "uint256",
              "name": "gigId",
              "type": "uint256"
            },
            {
              "internalType": "uint256",
              "name": "price",
              "type": "uint256"
            },
            {
              "internalType": "uint256",
              "name": "createdAt",
              "type": "uint256"
            },
            {
              "internalType": "uint256",
              "name": "completedAt",
              "type": "uint256"
            },
            {
              "internalType": "enum DecentralizedPlatform.OrderStatus",
              "name": "status",
              "type": "uint8"
            }
          ],
          "internalType": "struct DecentralizedPlatform.Order",
          "name": "",
          "type": "tuple"
        }
      ],
      "stateMutability": "view",
      "type": "function"
    },
    {
      "inputs": [
        {
          "internalType": "address",
          "name": "_user",
          "type": "address"
        }
      ],
      "name": "getUserOrders",
      "outputs": [
        {
          "internalType": "uint256[]",
          "name": "",
          "type": "uint256[]"
        }
      ],
      "stateMutability": "view",
      "type": "function"
    },
    {
      "inputs": [],
      "name": "withdraw",
      "outputs": [],
      "stateMutability": "nonpayable",
      "type": "function"
    }
  ],
  "bytecode": "0x608060405234801561001057600080fd5b50336000806101000a81548173ffffffffffffffffffffffffffffffffffffffff021916908373ffffffffffffffffffffffffffffffffffffffff1602179055506000600281905550611eee806100686000396000f3fe6080604052600436106100fe5760003560e01c8063856652e911610095578063a302e23211610064578063a302e232146102fe578063a85c38ef14610329578063b4050fc81461036d578063d8f71d5314610396578063ec7dd7bb146103c1576100fe565b8063856652e9146102425780638da5cb5b1461027f5780638f99528c146102aa578063a09970b2146102d5576100fe565b806340051ba8116100d157806340051ba8146101975780634d68282f146101c057806363c69f08146101e957806377e16afe14610226576100fe565b80630f05e5a5146101035780632453ffa81461012c57806333e23311146101575780633ccfd60b14610180575b600080fd5b34801561010f57600080fd5b5061012a60048036038101906101259190611414565b6103fe565b005b34801561013857600080fd5b506101416104d0565b60405161014e919061145a565b60405180910390f35b34801561016357600080fd5b5061017e600480360381019061017991906114a1565b6104d6565b005b34801561018c57600080fd5b50610195610601565b005b3480156101a357600080fd5b506101be60048036038101906101b991906114a1565b6106f8565b005b3480156101cc57600080fd5b506101e760048036038101906101e291906114a1565b6107a5565b005b3480156101f557600080fd5b50610210600480360381019061020b9190611414565b610ad6565b60405161021d919061158c565b60405180910390f35b610240600480360381019061023b91906115ec565b610b6d565b005b34801561024e57600080fd5b506102696004803603810190610264919061163f565b610e6e565b604051610276919061145a565b60405180910390f35b34801561028b57600080fd5b50610294610e9f565b6040516102a1919061168e565b60405180910390f35b3480156102b657600080fd5b506102bf610ec3565b6040516102cc919061168e565b60405180910390f35b3480156102e157600080fd5b506102fc60048036038101906102f791906114a1565b610ee9565b005b34801561030a57600080fd5b50610313610f90565b604051610320919061145a565b60405180910390f35b34801561033557600080fd5b50610350600480360381019061034b91906114a1565b610f95565b60405161036498979695949392919061172f565b60405180910390f35b34801561037957600080fd5b50610394600480360381019061038f91906114a1565b61102a565b005b3480156103a257600080fd5b506103ab6111e2565b6040516103b8919061145a565b60405180910390f35b3480156103cd57600080fd5b506103e860048036038101906103e391906114a1565b6111e7565b6040516103f5919061186d565b60405180910390f35b60008054906101000a900473ffffffffffffffffffffffffffffffffffffffff1673ffffffffffffffffffffffffffffffffffffffff163373ffffffffffffffffffffffffffffffffffffffff161461048c576040517f08c379a00000000000000000000000000000000000000000000000000000000081526004016104839061190c565b60405180910390fd5b80600160006101000a81548173ffffffffffffffffffffffffffffffffffffffff021916908373ffffffffffffffffffffffffffffffffffffffff16021790555050565b60025481565b600060036000838152602001908152602001600020905060036004811115610501576105006116b8565b5b8160070160009054906101000a900460ff166004811115610525576105246116b8565b5b14610565576040517f08c379a000000000000000000000000000000000000000000000000000000000815260040161055c9061199e565b60405180910390fd5b60048160070160006101000a81548160ff0219169083600481111561058d5761058c6116b8565b5b02179055503073ffffffffffffffffffffffffffffffffffffffff16634d68282f836040518263ffffffff1660e01b81526004016105cb919061145a565b600060405180830381600087803b1580156105e557600080fd5b505af11580156105f9573d6000803e3d6000fd5b505050505050565b60008054906101000a900473ffffffffffffffffffffffffffffffffffffffff1673ffffffffffffffffffffffffffffffffffffffff163373ffffffffffffffffffffffffffffffffffffffff161461068f576040517f08c379a00000000000000000000000000000000000000000000000000000000081526004016106869061190c565b60405180910390fd5b60008054906101000a900473ffffffffffffffffffffffffffffffffffffffff1673ffffffffffffffffffffffffffffffffffffffff166108fc479081150290604051600060405180830381858888f193505050501580156106f5573d6000803e3d6000fd5b50565b600060036000838152602001908152602001600020905060018160070160006101000a81548160ff02191690836004811115610737576107366116b8565b5b02179055507f5f5cb355147386555ed6155e2bd6562a423da3c8bd426bee54c9b8f286ec7265828260010160009054906101000a900473ffffffffffffffffffffffffffffffffffffffff163384600401546040516107999493929190611a1d565b60405180910390a15050565b60006003600083815260200190815260200160002090508060020160009054906101000a900473ffffffffffffffffffffffffffffffffffffffff1673ffffffffffffffffffffffffffffffffffffffff163373ffffffffffffffffffffffffffffffffffffffff160361084e576040517f08c379a000000000000000000000000000000000000000000000000000000000815260040161084590611ad4565b60405180910390fd5b60016004811115610862576108616116b8565b5b8160070160009054906101000a900460ff166004811115610886576108856116b8565b5b14806108c75750600360048111156108a1576108a06116b8565b5b8160070160009054906101000a900460ff1660048111156108c5576108c46116b8565b5b145b610906576040517f08c379a00000000000000000000000000000000000000000000000000000000081526004016108fd90611b66565b60405180910390fd5b60048160070160006101000a81548160ff0219169083600481111561092e5761092d6116b8565b5b0217905550428160060181905550600081600401549050600060646005836109569190611bb5565b6109609190611c3e565b9050600081836109709190611c6f565b90508360020160009054906101000a900473ffffffffffffffffffffffffffffffffffffffff1673ffffffffffffffffffffffffffffffffffffffff166108fc829081150290604051600060405180830381858888f193505050501580156109dc573d6000803e3d6000fd5b50600160009054906101000a900473ffffffffffffffffffffffffffffffffffffffff1673ffffffffffffffffffffffffffffffffffffffff166108fc839081150290604051600060405180830381858888f19350505050158015610a45573d6000803e3d6000fd5b507fd1b71a0b3286e619e8025f84c24e69b5f58bbced221971eafdf23f3da9502605858560010160009054906101000a900473ffffffffffffffffffffffffffffffffffffffff168660020160009054906101000a900473ffffffffffffffffffffffffffffffffffffffff168760040154604051610ac79493929190611ca3565b60405180910390a15050505050565b6060600460008373ffffffffffffffffffffffffffffffffffffffff1673ffffffffffffffffffffffffffffffffffffffff168152602001908152602001600020805480602002602001604051908101604052809291908181526020018280548015610b6157602002820191906000526020600020905b815481526020019060010190808311610b4d575b50505050509050919050565b8273ffffffffffffffffffffffffffffffffffffffff163373ffffffffffffffffffffffffffffffffffffffff1603610bdb576040517f08c379a0000000000000000000000000000000000000000000000000000000008152600401610bd290611d5a565b60405180910390fd5b81341015610c1e576040517f08c379a0000000000000000000000000000000000000000000000000000000008152600401610c1590611dc6565b60405180910390fd5b60026000815480929190610c3190611de6565b91905055506000600254905060004290506040518061010001604052808381526020013373ffffffffffffffffffffffffffffffffffffffff1681526020018673ffffffffffffffffffffffffffffffffffffffff1681526020018481526020018581526020018281526020016000815260200160006004811115610cb957610cb86116b8565b5b815250600360008481526020019081526020016000206000820151816000015560208201518160010160006101000a81548173ffffffffffffffffffffffffffffffffffffffff021916908373ffffffffffffffffffffffffffffffffffffffff16021790555060408201518160020160006101000a81548173ffffffffffffffffffffffffffffffffffffffff021916908373ffffffffffffffffffffffffffffffffffffffff160217905550606082015181600301556080820151816004015560a0820151816005015560c0820151816006015560e08201518160070160006101000a81548160ff02191690836004811115610dba57610db96116b8565b5b0217905550905050600460003373ffffffffffffffffffffffffffffffffffffffff1673ffffffffffffffffffffffffffffffffffffffff1681526020019081526020016000208290806001815401808255809150506001900390600052602060002001600090919091909150557f842740ca241c8cea19809d2824591efdd38a7e8e546b25122b975df6598e52c18233878787604051610e5f959493929190611e2e565b60405180910390a15050505050565b60046020528160005260406000208181548110610e8a57600080fd5b90600052602060002001600091509150505481565b60008054906101000a900473ffffffffffffffffffffffffffffffffffffffff1681565b600160009054906101000a900473ffffffffffffffffffffffffffffffffffffffff1681565b600060036000838152602001908152602001600020905060038160070160006101000a81548160ff02191690836004811115610f2857610f276116b8565b5b02179055507f11db54667c42cdc1814d1981261a556c4cd342b017dc711d64a598c0200823f982338360020160009054906101000a900473ffffffffffffffffffffffffffffffffffffffff16604051610f8493929190611e81565b60405180910390a15050565b600281565b60036020528060005260406000206000915090508060000154908060010160009054906101000a900473ffffffffffffffffffffffffffffffffffffffff16908060020160009054906101000a900473ffffffffffffffffffffffffffffffffffffffff16908060030154908060040154908060050154908060060154908060070160009054906101000a900460ff16905088565b600060036000838152602001908152602001600020905060036004811115611055576110546116b8565b5b8160070160009054906101000a900460ff166004811115611079576110786116b8565b5b146110b9576040517f08c379a00000000000000000000000000000000000000000000000000000000081526004016110b09061199e565b60405180910390fd5b60048160070160006101000a81548160ff021916908360048111156110e1576110e06116b8565b5b02179055508060010160009054906101000a900473ffffffffffffffffffffffffffffffffffffffff1673ffffffffffffffffffffffffffffffffffffffff166108fc82600401549081150290604051600060405180830381858888f19350505050158015611154573d6000803e3d6000fd5b507fd1b71a0b3286e619e8025f84c24e69b5f58bbced221971eafdf23f3da9502605828260010160009054906101000a900473ffffffffffffffffffffffffffffffffffffffff168360020160009054906101000a900473ffffffffffffffffffffffffffffffffffffffff1684600401546040516111d69493929190611ca3565b60405180910390a15050565b600581565b6111ef61132e565b6003600083815260200190815260200160002060405180610100016040529081600082015481526020016001820160009054906101000a900473ffffffffffffffffffffffffffffffffffffffff1673ffffffffffffffffffffffffffffffffffffffff1673ffffffffffffffffffffffffffffffffffffffff1681526020016002820160009054906101000a900473ffffffffffffffffffffffffffffffffffffffff1673ffffffffffffffffffffffffffffffffffffffff1673ffffffffffffffffffffffffffffffffffffffff168152602001600382015481526020016004820154815260200160058201548152602001600682015481526020016007820160009054906101000a900460ff166004811115611311576113106116b8565b5b6004811115611323576113226116b8565b5b815250509050919050565b60405180610100016040528060008152602001600073ffffffffffffffffffffffffffffffffffffffff168152602001600073ffffffffffffffffffffffffffffffffffffffff16815260200160008152602001600081526020016000815260200160008152602001600060048111156113ab576113aa6116b8565b5b81525090565b600080fd5b600073ffffffffffffffffffffffffffffffffffffffff82169050919050565b60006113e1826113b6565b9050919050565b6113f1816113d6565b81146113fc57600080fd5b50565b60008135905061140e816113e8565b92915050565b60006020828403121561142a576114296113b1565b5b6000611438848285016113ff565b91505092915050565b6000819050919050565b61145481611441565b82525050565b600060208201905061146f600083018461144b565b92915050565b61147e81611441565b811461148957600080fd5b50565b60008135905061149b81611475565b92915050565b6000602082840312156114b7576114b66113b1565b5b60006114c58482850161148c565b91505092915050565b600081519050919050565b600082825260208201905092915050565b6000819050602082019050919050565b61150381611441565b82525050565b600061151583836114fa565b60208301905092915050565b6000602082019050919050565b6000611539826114ce565b61154381856114d9565b935061154e836114ea565b8060005b8381101561157f5781516115668882611509565b975061157183611521565b925050600181019050611552565b5085935050505092915050565b600060208201905081810360008301526115a6818461152e565b905092915050565b60006115b9826113b6565b9050919050565b6115c9816115ae565b81146115d457600080fd5b50565b6000813590506115e6816115c0565b92915050565b600080600060608486031215611605576116046113b1565b5b6000611613868287016115d7565b93505060206116248682870161148c565b92505060406116358682870161148c565b9150509250925092565b60008060408385031215611656576116556113b1565b5b6000611664858286016113ff565b92505060206116758582860161148c565b9150509250929050565b611688816113d6565b82525050565b60006020820190506116a3600083018461167f565b92915050565b6116b2816115ae565b82525050565b7f4e487b7100000000000000000000000000000000000000000000000000000000600052602160045260246000fd5b600581106116f8576116f76116b8565b5b50565b6000819050611709826116e7565b919050565b6000611719826116fb565b9050919050565b6117298161170e565b82525050565b600061010082019050611745600083018b61144b565b611752602083018a6116a9565b61175f60408301896116a9565b61176c606083018861144b565b611779608083018761144b565b61178660a083018661144b565b61179360c083018561144b565b6117a060e0830184611720565b9998505050505050505050565b6117b6816115ae565b82525050565b6117c58161170e565b82525050565b610100820160008201516117e260008501826114fa565b5060208201516117f560208501826117ad565b50604082015161180860408501826117ad565b50606082015161181b60608501826114fa565b50608082015161182e60808501826114fa565b5060a082015161184160a08501826114fa565b5060c082015161185460c08501826114fa565b5060e082015161186760e08501826117bc565b50505050565b60006101008201905061188360008301846117cb565b92915050565b600082825260208201905092915050565b7f4f6e6c79206f776e65722063616e2063616c6c20746869732066756e6374696f60008201527f6e00000000000000000000000000000000000000000000000000000000000000602082015250565b60006118f6602183611889565b91506119018261189a565b604082019050919050565b60006020820190508181036000830152611925816118e9565b9050919050565b7f4f72646572206973206e6f7420696e20612076616c696420737461746520666f60008201527f722072656c656173650000000000000000000000000000000000000000000000602082015250565b6000611988602983611889565b91506119938261192c565b604082019050919050565b600060208201905081810360008301526119b78161197b565b9050919050565b6000819050919050565b60006119e36119de6119d9846113b6565b6119be565b6113b6565b9050919050565b60006119f5826119c8565b9050919050565b6000611a07826119ea565b9050919050565b611a17816119fc565b82525050565b6000608082019050611a32600083018761144b565b611a3f6020830186611a0e565b611a4c604083018561167f565b611a59606083018461144b565b95945050505050565b7f4f6e6c792073656c6c65722063616e20636f6d706c65746520746865206f726460008201527f6572000000000000000000000000000000000000000000000000000000000000602082015250565b6000611abe602283611889565b9150611ac982611a62565b604082019050919050565b60006020820190508181036000830152611aed81611ab1565b9050919050565b7f4f72646572206973206e6f7420696e20612076616c696420737461746520666f60008201527f7220636f6d706c6574696f6e0000000000000000000000000000000000000000602082015250565b6000611b50602c83611889565b9150611b5b82611af4565b604082019050919050565b60006020820190508181036000830152611b7f81611b43565b9050919050565b7f4e487b7100000000000000000000000000000000000000000000000000000000600052601160045260246000fd5b6000611bc082611441565b9150611bcb83611441565b9250817fffffffffffffffffffffffffffffffffffffffffffffffffffffffffffffffff0483118215151615611c0457611c03611b86565b5b828202905092915050565b7f4e487b7100000000000000000000000000000000000000000000000000000000600052601260045260246000fd5b6000611c4982611441565b9150611c5483611441565b925082611c6457611c63611c0f565b5b828204905092915050565b6000611c7a82611441565b9150611c8583611441565b925082821015611c9857611c97611b86565b5b828203905092915050565b6000608082019050611cb8600083018761144b565b611cc56020830186611a0e565b611cd26040830185611a0e565b611cdf606083018461144b565b95945050505050565b7f42757965722063616e6e6f74206265207468652073616d652061732073656c6c60008201527f6572000000000000000000000000000000000000000000000000000000000000602082015250565b6000611d44602283611889565b9150611d4f82611ce8565b604082019050919050565b60006020820190508181036000830152611d7381611d37565b9050919050565b7f496e73756666696369656e74207061796d656e7420616d6f756e740000000000600082015250565b6000611db0601b83611889565b9150611dbb82611d7a565b602082019050919050565b60006020820190508181036000830152611ddf81611da3565b9050919050565b6000611df182611441565b91507fffffffffffffffffffffffffffffffffffffffffffffffffffffffffffffffff8203611e2357611e22611b86565b5b600182019050919050565b600060a082019050611e43600083018861144b565b611e50602083018761167f565b611e5d6040830186611a0e565b611e6a606083018561144b565b611e77608083018461144b565b9695505050505050565b6000606082019050611e96600083018661144b565b611ea3602083018561167f565b611eb06040830184611a0e565b94935050505056fea2646970667358221220396e23a73ac176bab950b6f35330ffcb1944bbbc1a6cb519fd9445115f83c2cc64736f6c634300080d0033",
  "immutableReferences": {},
  "source": "// SPDX-License-Identifier: MIT\r\npragma solidity ^0.8.0;\r\n\r\ncontract DecentralizedPlatform {\r\n    address public owner;\r\n    address public skillmeshTeam;\r\n    uint public orderCount;\r\n    uint public constant RELEASE_DELAY = 2;\r\n    uint public constant SKILLMESH_FEE_PERCENT = 5;\r\n\r\n    enum OrderStatus {\r\n        Created,\r\n        AmountPending,\r\n        Completed,\r\n        Disputed,\r\n        FundsReleased\r\n    }\r\n\r\n    struct Order {\r\n        uint id;\r\n        address payable buyer;\r\n        address payable seller;\r\n        uint gigId;\r\n        uint price;\r\n        uint createdAt;\r\n        uint completedAt;\r\n        OrderStatus status;\r\n    }\r\n\r\n    mapping(uint => Order) public orders;\r\n    mapping(address => uint[]) public userOrders;\r\n\r\n    event OrderPlaced(\r\n        uint orderId,\r\n        address buyer,\r\n        address seller,\r\n        uint price,\r\n        uint _gigId\r\n    );\r\n    event OrderCompleted(\r\n        uint orderId,\r\n        address buyer,\r\n        address seller,\r\n        uint price\r\n    );\r\n    event AmountPending(\r\n        uint orderId,\r\n        address buyer,\r\n        address seller,\r\n        uint price\r\n    );\r\n    event OrderDisputed(uint orderId, address buyer, address seller);\r\n    event OrderCanceled(uint orderId, address buyer, address seller);\r\n    event FundsReleased(uint orderId, address recipient, uint amount);\r\n\r\n    constructor() {\r\n        owner = msg.sender;\r\n        orderCount = 0;\r\n    }\r\n\r\n    modifier onlyOwner() {\r\n        require(msg.sender == owner, \"Only owner can call this function\");\r\n        _;\r\n    }\r\n\r\n    function setSkillMeshAddress(address skillmesh) external onlyOwner {\r\n        skillmeshTeam = skillmesh;\r\n    }\r\n\r\n    function placeOrder(\r\n        address payable _seller,\r\n        uint _price,\r\n        uint _gigId\r\n    ) external payable {\r\n        require(msg.sender != _seller, \"Buyer cannot be the same as seller\");\r\n        require(msg.value >= _price, \"Insufficient payment amount\");\r\n\r\n        orderCount++;\r\n        uint orderId = orderCount;\r\n        uint currentTime = block.timestamp;\r\n\r\n        orders[orderId] = Order(\r\n            orderId,\r\n            payable(msg.sender),\r\n            _seller,\r\n            _gigId,\r\n            _price,\r\n            currentTime,\r\n            0,\r\n            OrderStatus.Created\r\n        );\r\n        userOrders[msg.sender].push(orderId);\r\n\r\n        emit OrderPlaced(orderId, msg.sender, _seller, _price, _gigId);\r\n    }\r\n\r\n    function readyFromSeller(uint _orderId) external {\r\n        Order storage order = orders[_orderId];\r\n        order.status = OrderStatus.AmountPending;\r\n\r\n        emit AmountPending(_orderId, order.buyer, msg.sender, order.price);\r\n    }\r\n\r\n    function disputeOrder(uint _orderId) external {\r\n        Order storage order = orders[_orderId];\r\n        order.status = OrderStatus.Disputed;\r\n\r\n        emit OrderDisputed(_orderId, msg.sender, order.seller);\r\n    }\r\n\r\n    function releaseFunds(uint _orderId) external {\r\n        Order storage order = orders[_orderId];\r\n        require(\r\n            msg.sender != order.seller,\r\n            \"Only seller can complete the order\"\r\n        );\r\n        require(\r\n            order.status == OrderStatus.AmountPending ||\r\n                order.status == OrderStatus.Disputed,\r\n            \"Order is not in a valid state for completion\"\r\n        );\r\n\r\n        order.status = OrderStatus.FundsReleased;\r\n        order.completedAt = block.timestamp;\r\n\r\n        // Calculate amount to transfer to seller after deducting Skillmesh fee\r\n        uint amountToSeller = order.price;\r\n        uint feeAmount = (amountToSeller * SKILLMESH_FEE_PERCENT) / 100;\r\n        uint finalAmountToSeller = amountToSeller - feeAmount;\r\n\r\n        // Transfer funds to seller\r\n        payable(order.seller).transfer(finalAmountToSeller);\r\n\r\n        // Transfer fee to Skillmesh team\r\n        payable(skillmeshTeam).transfer(feeAmount);\r\n\r\n        emit OrderCompleted(_orderId, order.buyer, order.seller, order.price);\r\n    }\r\n\r\n    function refundToBuyer(uint _orderId) external {\r\n        Order storage order = orders[_orderId];\r\n        require(\r\n            order.status == OrderStatus.Disputed,\r\n            \"Order is not in a valid state for release\"\r\n        );\r\n\r\n        order.status = OrderStatus.FundsReleased;\r\n\r\n        // Refund the buyer\r\n        payable(order.buyer).transfer(order.price);\r\n\r\n        emit OrderCompleted(_orderId, order.buyer, order.seller, order.price);\r\n    }\r\n\r\n    function releaseToSeller(uint _orderId) external {\r\n        Order storage order = orders[_orderId];\r\n        require(\r\n            order.status == OrderStatus.Disputed,\r\n            \"Order is not in a valid state for release\"\r\n        );\r\n\r\n        order.status = OrderStatus.FundsReleased;\r\n\r\n        this.releaseFunds(_orderId);\r\n    }\r\n\r\n    function getOrderDetails(\r\n        uint _orderId\r\n    ) external view returns (Order memory) {\r\n        return orders[_orderId];\r\n    }\r\n\r\n    function getUserOrders(\r\n        address _user\r\n    ) external view returns (uint[] memory) {\r\n        return userOrders[_user];\r\n    }\r\n\r\n    function withdraw() external onlyOwner {\r\n        payable(owner).transfer(address(this).balance);\r\n    }\r\n}\r\n",
  "sourcePath": "E:\\SkillMesh\\smartcontract\\contracts\\SkillmeshContract.sol",
  "compiler": {
    "name": "solc",
    "version": "0.8.13+commit.abaa5c0e.Emscripten.clang"
  },
  "schemaVersion": "3.4.16",
  "updatedAt": "2024-05-14T21:03:49.098Z",
  "devdoc": {
    "kind": "dev",
    "methods": {},
    "version": 1
  },
  "userdoc": {
    "kind": "user",
    "methods": {},
    "version": 1
  }
}