{
  "contractName": "DecentralizedPlatform",
  "abi": [
    {
      "inputs": [],
      "stateMutability": "nonpayable",
      "type": "constructor"
    },
    {
      "anonymous": false,
      "inputs": [
        {
          "indexed": false,
          "internalType": "uint256",
          "name": "orderId",
          "type": "uint256"
        },
        {
          "indexed": false,
          "internalType": "address",
          "name": "buyer",
          "type": "address"
        },
        {
          "indexed": false,
          "internalType": "address",
          "name": "seller",
          "type": "address"
        },
        {
          "indexed": false,
          "internalType": "uint256",
          "name": "price",
          "type": "uint256"
        }
      ],
      "name": "AmountPending",
      "type": "event"
    },
    {
      "anonymous": false,
      "inputs": [
        {
          "indexed": false,
          "internalType": "uint256",
          "name": "orderId",
          "type": "uint256"
        },
        {
          "indexed": false,
          "internalType": "address",
          "name": "recipient",
          "type": "address"
        },
        {
          "indexed": false,
          "internalType": "uint256",
          "name": "amount",
          "type": "uint256"
        }
      ],
      "name": "FundsReleased",
      "type": "event"
    },
    {
      "anonymous": false,
      "inputs": [
        {
          "indexed": false,
          "internalType": "uint256",
          "name": "orderId",
          "type": "uint256"
        },
        {
          "indexed": false,
          "internalType": "address",
          "name": "buyer",
          "type": "address"
        },
        {
          "indexed": false,
          "internalType": "address",
          "name": "seller",
          "type": "address"
        }
      ],
      "name": "OrderCanceled",
      "type": "event"
    },
    {
      "anonymous": false,
      "inputs": [
        {
          "indexed": false,
          "internalType": "uint256",
          "name": "orderId",
          "type": "uint256"
        },
        {
          "indexed": false,
          "internalType": "address",
          "name": "buyer",
          "type": "address"
        },
        {
          "indexed": false,
          "internalType": "address",
          "name": "seller",
          "type": "address"
        },
        {
          "indexed": false,
          "internalType": "uint256",
          "name": "price",
          "type": "uint256"
        }
      ],
      "name": "OrderCompleted",
      "type": "event"
    },
    {
      "anonymous": false,
      "inputs": [
        {
          "indexed": false,
          "internalType": "uint256",
          "name": "orderId",
          "type": "uint256"
        },
        {
          "indexed": false,
          "internalType": "address",
          "name": "buyer",
          "type": "address"
        },
        {
          "indexed": false,
          "internalType": "address",
          "name": "seller",
          "type": "address"
        }
      ],
      "name": "OrderDisputed",
      "type": "event"
    },
    {
      "anonymous": false,
      "inputs": [
        {
          "indexed": false,
          "internalType": "uint256",
          "name": "orderId",
          "type": "uint256"
        },
        {
          "indexed": false,
          "internalType": "address",
          "name": "buyer",
          "type": "address"
        },
        {
          "indexed": false,
          "internalType": "address",
          "name": "seller",
          "type": "address"
        },
        {
          "indexed": false,
          "internalType": "uint256",
          "name": "price",
          "type": "uint256"
        },
        {
          "indexed": false,
          "internalType": "string",
          "name": "_gigId",
          "type": "string"
        }
      ],
      "name": "OrderPlaced",
      "type": "event"
    },
    {
      "inputs": [],
      "name": "RELEASE_DELAY",
      "outputs": [
        {
          "internalType": "uint256",
          "name": "",
          "type": "uint256"
        }
      ],
      "stateMutability": "view",
      "type": "function",
      "constant": true
    },
    {
      "inputs": [],
      "name": "SKILLMESH_FEE_PERCENT",
      "outputs": [
        {
          "internalType": "uint256",
          "name": "",
          "type": "uint256"
        }
      ],
      "stateMutability": "view",
      "type": "function",
      "constant": true
    },
    {
      "inputs": [
        {
          "internalType": "uint256",
          "name": "",
          "type": "uint256"
        }
      ],
      "name": "orders",
      "outputs": [
        {
          "internalType": "uint256",
          "name": "id",
          "type": "uint256"
        },
        {
          "internalType": "address payable",
          "name": "buyer",
          "type": "address"
        },
        {
          "internalType": "address payable",
          "name": "seller",
          "type": "address"
        },
        {
          "internalType": "string",
          "name": "gigId",
          "type": "string"
        },
        {
          "internalType": "uint256",
          "name": "price",
          "type": "uint256"
        },
        {
          "internalType": "uint256",
          "name": "createdAt",
          "type": "uint256"
        },
        {
          "internalType": "uint256",
          "name": "completedAt",
          "type": "uint256"
        },
        {
          "internalType": "enum DecentralizedPlatform.OrderStatus",
          "name": "status",
          "type": "uint8"
        }
      ],
      "stateMutability": "view",
      "type": "function",
      "constant": true
    },
    {
      "inputs": [],
      "name": "owner",
      "outputs": [
        {
          "internalType": "address",
          "name": "",
          "type": "address"
        }
      ],
      "stateMutability": "view",
      "type": "function",
      "constant": true
    },
    {
      "inputs": [],
      "name": "skillmeshTeam",
      "outputs": [
        {
          "internalType": "address",
          "name": "",
          "type": "address"
        }
      ],
      "stateMutability": "view",
      "type": "function",
      "constant": true
    },
    {
      "inputs": [
        {
          "internalType": "address",
          "name": "_skillmesh",
          "type": "address"
        }
      ],
      "name": "setSkillMeshAddress",
      "outputs": [],
      "stateMutability": "nonpayable",
      "type": "function"
    },
    {
      "inputs": [
        {
          "internalType": "address payable",
          "name": "_seller",
          "type": "address"
        },
        {
          "internalType": "string",
          "name": "_gigId",
          "type": "string"
        },
        {
          "internalType": "uint256",
          "name": "_price",
          "type": "uint256"
        },
        {
          "internalType": "uint256",
          "name": "_orderId",
          "type": "uint256"
        }
      ],
      "name": "placeOrder",
      "outputs": [],
      "stateMutability": "payable",
      "type": "function",
      "payable": true
    },
    {
      "inputs": [
        {
          "internalType": "uint256",
          "name": "_orderId",
          "type": "uint256"
        }
      ],
      "name": "readyFromSeller",
      "outputs": [],
      "stateMutability": "nonpayable",
      "type": "function"
    },
    {
      "inputs": [
        {
          "internalType": "uint256",
          "name": "_orderId",
          "type": "uint256"
        }
      ],
      "name": "completeOrder",
      "outputs": [],
      "stateMutability": "nonpayable",
      "type": "function"
    }
  ],
  "bytecode": "0x608060405234801561001057600080fd5b50336000806101000a81548173ffffffffffffffffffffffffffffffffffffffff021916908373ffffffffffffffffffffffffffffffffffffffff16021790555061130e806100606000396000f3fe6080604052600436106100865760003560e01c80638f99528c116100595780638f99528c14610124578063a302e2321461014f578063a85c38ef1461017a578063b6adaaff146101be578063d8f71d53146101e757610086565b80630f05e5a51461008b578063315b798f146100b457806340051ba8146100d05780638da5cb5b146100f9575b600080fd5b34801561009757600080fd5b506100b260048036038101906100ad9190610a22565b610212565b005b6100ce60048036038101906100c99190610c09565b6102e4565b005b3480156100dc57600080fd5b506100f760048036038101906100f29190610c8c565b61052c565b005b34801561010557600080fd5b5061010e6106f2565b60405161011b9190610cc8565b60405180910390f35b34801561013057600080fd5b50610139610716565b6040516101469190610cc8565b60405180910390f35b34801561015b57600080fd5b5061016461073c565b6040516101719190610cf2565b60405180910390f35b34801561018657600080fd5b506101a1600480360381019061019c9190610c8c565b610741565b6040516101b5989796959493929190610e1b565b60405180910390f35b3480156101ca57600080fd5b506101e560048036038101906101e09190610c8c565b61086e565b005b3480156101f357600080fd5b506101fc610908565b6040516102099190610cf2565b60405180910390f35b60008054906101000a900473ffffffffffffffffffffffffffffffffffffffff1673ffffffffffffffffffffffffffffffffffffffff163373ffffffffffffffffffffffffffffffffffffffff16146102a0576040517f08c379a000000000000000000000000000000000000000000000000000000000815260040161029790610f12565b60405180910390fd5b80600160006101000a81548173ffffffffffffffffffffffffffffffffffffffff021916908373ffffffffffffffffffffffffffffffffffffffff16021790555050565b813414610326576040517f08c379a000000000000000000000000000000000000000000000000000000000815260040161031d90610fa4565b60405180910390fd5b600042905060026040518061010001604052808481526020013373ffffffffffffffffffffffffffffffffffffffff1681526020018773ffffffffffffffffffffffffffffffffffffffff16815260200186815260200185815260200183815260200160008152602001600060048111156103a4576103a3610da4565b5b81525090806001815401808255809150506001900390600052602060002090600802016000909190919091506000820151816000015560208201518160010160006101000a81548173ffffffffffffffffffffffffffffffffffffffff021916908373ffffffffffffffffffffffffffffffffffffffff16021790555060408201518160020160006101000a81548173ffffffffffffffffffffffffffffffffffffffff021916908373ffffffffffffffffffffffffffffffffffffffff160217905550606082015181600301908051906020019061048492919061090d565b506080820151816004015560a0820151816005015560c0820151816006015560e08201518160070160006101000a81548160ff021916908360048111156104ce576104cd610da4565b5b021790555050507fb1147f852fc43e7f848e0139b512feb6ad9e1b0c47d4071cc28af776ebeac77d60016002805490506105089190610ff3565b3387868860405161051d959493929190611086565b60405180910390a15050505050565b600060028281548110610542576105416110e0565b5b906000526020600020906008020190503373ffffffffffffffffffffffffffffffffffffffff168160020160009054906101000a900473ffffffffffffffffffffffffffffffffffffffff1673ffffffffffffffffffffffffffffffffffffffff16146105e4576040517f08c379a00000000000000000000000000000000000000000000000000000000081526004016105db90611181565b60405180910390fd5b600060048111156105f8576105f7610da4565b5b8160070160009054906101000a900460ff16600481111561061c5761061b610da4565b5b1461065c576040517f08c379a000000000000000000000000000000000000000000000000000000000815260040161065390611213565b60405180910390fd5b60018160070160006101000a81548160ff0219169083600481111561068457610683610da4565b5b02179055507f5f5cb355147386555ed6155e2bd6562a423da3c8bd426bee54c9b8f286ec7265828260010160009054906101000a900473ffffffffffffffffffffffffffffffffffffffff163384600401546040516106e69493929190611233565b60405180910390a15050565b60008054906101000a900473ffffffffffffffffffffffffffffffffffffffff1681565b600160009054906101000a900473ffffffffffffffffffffffffffffffffffffffff1681565b600281565b6002818154811061075157600080fd5b90600052602060002090600802016000915090508060000154908060010160009054906101000a900473ffffffffffffffffffffffffffffffffffffffff16908060020160009054906101000a900473ffffffffffffffffffffffffffffffffffffffff16908060030180546107c6906112a7565b80601f01602080910402602001604051908101604052809291908181526020018280546107f2906112a7565b801561083f5780601f106108145761010080835404028352916020019161083f565b820191906000526020600020905b81548152906001019060200180831161082257829003601f168201915b5050505050908060040154908060050154908060060154908060070160009054906101000a900460ff16905088565b60006002600081548110610885576108846110e0565b5b906000526020600020906008020190508060020160009054906101000a900473ffffffffffffffffffffffffffffffffffffffff1673ffffffffffffffffffffffffffffffffffffffff166108fc82600401549081150290604051600060405180830381858888f19350505050158015610903573d6000803e3d6000fd5b505050565b600581565b828054610919906112a7565b90600052602060002090601f01602090048101928261093b5760008555610982565b82601f1061095457805160ff1916838001178555610982565b82800160010185558215610982579182015b82811115610981578251825591602001919060010190610966565b5b50905061098f9190610993565b5090565b5b808211156109ac576000816000905550600101610994565b5090565b6000604051905090565b600080fd5b600080fd5b600073ffffffffffffffffffffffffffffffffffffffff82169050919050565b60006109ef826109c4565b9050919050565b6109ff816109e4565b8114610a0a57600080fd5b50565b600081359050610a1c816109f6565b92915050565b600060208284031215610a3857610a376109ba565b5b6000610a4684828501610a0d565b91505092915050565b6000610a5a826109c4565b9050919050565b610a6a81610a4f565b8114610a7557600080fd5b50565b600081359050610a8781610a61565b92915050565b600080fd5b600080fd5b6000601f19601f8301169050919050565b7f4e487b7100000000000000000000000000000000000000000000000000000000600052604160045260246000fd5b610ae082610a97565b810181811067ffffffffffffffff82111715610aff57610afe610aa8565b5b80604052505050565b6000610b126109b0565b9050610b1e8282610ad7565b919050565b600067ffffffffffffffff821115610b3e57610b3d610aa8565b5b610b4782610a97565b9050602081019050919050565b82818337600083830152505050565b6000610b76610b7184610b23565b610b08565b905082815260208101848484011115610b9257610b91610a92565b5b610b9d848285610b54565b509392505050565b600082601f830112610bba57610bb9610a8d565b5b8135610bca848260208601610b63565b91505092915050565b6000819050919050565b610be681610bd3565b8114610bf157600080fd5b50565b600081359050610c0381610bdd565b92915050565b60008060008060808587031215610c2357610c226109ba565b5b6000610c3187828801610a78565b945050602085013567ffffffffffffffff811115610c5257610c516109bf565b5b610c5e87828801610ba5565b9350506040610c6f87828801610bf4565b9250506060610c8087828801610bf4565b91505092959194509250565b600060208284031215610ca257610ca16109ba565b5b6000610cb084828501610bf4565b91505092915050565b610cc2816109e4565b82525050565b6000602082019050610cdd6000830184610cb9565b92915050565b610cec81610bd3565b82525050565b6000602082019050610d076000830184610ce3565b92915050565b610d1681610a4f565b82525050565b600081519050919050565b600082825260208201905092915050565b60005b83811015610d56578082015181840152602081019050610d3b565b83811115610d65576000848401525b50505050565b6000610d7682610d1c565b610d808185610d27565b9350610d90818560208601610d38565b610d9981610a97565b840191505092915050565b7f4e487b7100000000000000000000000000000000000000000000000000000000600052602160045260246000fd5b60058110610de457610de3610da4565b5b50565b6000819050610df582610dd3565b919050565b6000610e0582610de7565b9050919050565b610e1581610dfa565b82525050565b600061010082019050610e31600083018b610ce3565b610e3e602083018a610d0d565b610e4b6040830189610d0d565b8181036060830152610e5d8188610d6b565b9050610e6c6080830187610ce3565b610e7960a0830186610ce3565b610e8660c0830185610ce3565b610e9360e0830184610e0c565b9998505050505050505050565b7f4f6e6c79206f776e65722063616e2063616c6c20746869732066756e6374696f60008201527f6e00000000000000000000000000000000000000000000000000000000000000602082015250565b6000610efc602183610d27565b9150610f0782610ea0565b604082019050919050565b60006020820190508181036000830152610f2b81610eef565b9050919050565b7f5061796d656e7420616d6f756e74206d75737420626520657175616c20746f2060008201527f746865206f726465722070726963650000000000000000000000000000000000602082015250565b6000610f8e602f83610d27565b9150610f9982610f32565b604082019050919050565b60006020820190508181036000830152610fbd81610f81565b9050919050565b7f4e487b7100000000000000000000000000000000000000000000000000000000600052601160045260246000fd5b6000610ffe82610bd3565b915061100983610bd3565b92508282101561101c5761101b610fc4565b5b828203905092915050565b6000819050919050565b600061104c611047611042846109c4565b611027565b6109c4565b9050919050565b600061105e82611031565b9050919050565b600061107082611053565b9050919050565b61108081611065565b82525050565b600060a08201905061109b6000830188610ce3565b6110a86020830187610cb9565b6110b56040830186611077565b6110c26060830185610ce3565b81810360808301526110d48184610d6b565b90509695505050505050565b7f4e487b7100000000000000000000000000000000000000000000000000000000600052603260045260246000fd5b7f4f6e6c792073656c6c65722063616e206d61726b20746865206f72646572206160008201527f7320726561647900000000000000000000000000000000000000000000000000602082015250565b600061116b602783610d27565b91506111768261110f565b604082019050919050565b6000602082019050818103600083015261119a8161115e565b9050919050565b7f4f72646572206973206e6f7420696e20612076616c696420737461746520746f60008201527f206d61726b206173207265616479000000000000000000000000000000000000602082015250565b60006111fd602e83610d27565b9150611208826111a1565b604082019050919050565b6000602082019050818103600083015261122c816111f0565b9050919050565b60006080820190506112486000830187610ce3565b6112556020830186611077565b6112626040830185610cb9565b61126f6060830184610ce3565b95945050505050565b7f4e487b7100000000000000000000000000000000000000000000000000000000600052602260045260246000fd5b600060028204905060018216806112bf57607f821691505b6020821081036112d2576112d1611278565b5b5091905056fea26469706673582212203d3afab428582808a84ab2ca5b08d59e94df53149a3aca226b268674badfbe6c64736f6c634300080d0033",
  "immutableReferences": {},
  "source": "// SPDX-License-Identifier: MIT\r\npragma solidity ^0.8.0;\r\n\r\ncontract DecentralizedPlatform {\r\n    address public owner;\r\n    address public skillmeshTeam;\r\n    uint public constant RELEASE_DELAY = 2;\r\n    uint public constant SKILLMESH_FEE_PERCENT = 5;\r\n\r\n    enum OrderStatus {\r\n        Created,\r\n        AmountPending,\r\n        Completed,\r\n        Disputed,\r\n        FundsReleased\r\n    }\r\n\r\n    struct Order {\r\n        uint id;\r\n        address payable buyer;\r\n        address payable seller;\r\n        string gigId;\r\n        uint price;\r\n        uint createdAt;\r\n        uint completedAt;\r\n        OrderStatus status;\r\n    }\r\n\r\n    Order[] public orders;\r\n\r\n    event OrderPlaced(\r\n        uint orderId,\r\n        address buyer,\r\n        address seller,\r\n        uint price,\r\n        string _gigId\r\n    );\r\n    event OrderCompleted(\r\n        uint orderId,\r\n        address buyer,\r\n        address seller,\r\n        uint price\r\n    );\r\n    event AmountPending(\r\n        uint orderId,\r\n        address buyer,\r\n        address seller,\r\n        uint price\r\n    );\r\n    event OrderDisputed(uint orderId, address buyer, address seller);\r\n    event OrderCanceled(uint orderId, address buyer, address seller);\r\n    event FundsReleased(uint orderId, address recipient, uint amount);\r\n\r\n    constructor() {\r\n        owner = msg.sender;\r\n    }\r\n\r\n    modifier onlyOwner() {\r\n        require(msg.sender == owner, \"Only owner can call this function\");\r\n        _;\r\n    }\r\n\r\n    function setSkillMeshAddress(address _skillmesh) external onlyOwner {\r\n        skillmeshTeam = _skillmesh;\r\n    }\r\n\r\n    function placeOrder(\r\n        address payable _seller,\r\n        string memory _gigId,\r\n        uint _price,\r\n        uint _orderId\r\n    ) external payable {\r\n        require(\r\n            msg.value == _price,\r\n            \"Payment amount must be equal to the order price\"\r\n        );\r\n        uint currentTime = block.timestamp;\r\n\r\n        orders.push(\r\n            Order({\r\n                id: _orderId,\r\n                buyer: payable(msg.sender),\r\n                seller: _seller,\r\n                gigId: _gigId,\r\n                price: _price,\r\n                createdAt: currentTime,\r\n                completedAt: 0,\r\n                status: OrderStatus.Created\r\n            })\r\n        );\r\n\r\n        emit OrderPlaced(\r\n            orders.length - 1,\r\n            msg.sender,\r\n            _seller,\r\n            _price,\r\n            _gigId\r\n        );\r\n    }\r\n\r\n    function readyFromSeller(uint _orderId) external {\r\n        Order storage order = orders[_orderId];\r\n        require(\r\n            order.seller == msg.sender,\r\n            \"Only seller can mark the order as ready\"\r\n        );\r\n        require(\r\n            order.status == OrderStatus.Created,\r\n            \"Order is not in a valid state to mark as ready\"\r\n        );\r\n\r\n        order.status = OrderStatus.AmountPending;\r\n\r\n        emit AmountPending(_orderId, order.buyer, msg.sender, order.price);\r\n    }\r\n\r\n    function completeOrder(uint _orderId) external {\r\n        Order storage order = orders[0];\r\n        order.seller.transfer(order.price);\r\n    }\r\n}\r\n",
  "sourcePath": "E:\\SkillMesh\\smartcontract\\contracts\\SkillmeshContract.sol",
  "compiler": {
    "name": "solc",
    "version": "0.8.13+commit.abaa5c0e.Emscripten.clang"
  },
  "schemaVersion": "3.4.16",
  "updatedAt": "2024-06-27T05:12:05.741Z",
  "networkType": "ethereum",
  "devdoc": {
    "kind": "dev",
    "methods": {},
    "version": 1
  },
  "userdoc": {
    "kind": "user",
    "methods": {},
    "version": 1
  }
}