{
  "contractName": "DecentralizedPlatform",
  "abi": [
    {
      "inputs": [],
      "stateMutability": "nonpayable",
      "type": "constructor"
    },
    {
      "anonymous": false,
      "inputs": [
        {
          "indexed": false,
          "internalType": "uint256",
          "name": "orderId",
          "type": "uint256"
        },
        {
          "indexed": false,
          "internalType": "address",
          "name": "buyer",
          "type": "address"
        },
        {
          "indexed": false,
          "internalType": "address",
          "name": "seller",
          "type": "address"
        },
        {
          "indexed": false,
          "internalType": "uint256",
          "name": "price",
          "type": "uint256"
        }
      ],
      "name": "AmountPending",
      "type": "event"
    },
    {
      "anonymous": false,
      "inputs": [
        {
          "indexed": false,
          "internalType": "uint256",
          "name": "orderId",
          "type": "uint256"
        },
        {
          "indexed": false,
          "internalType": "address",
          "name": "recipient",
          "type": "address"
        },
        {
          "indexed": false,
          "internalType": "uint256",
          "name": "amount",
          "type": "uint256"
        }
      ],
      "name": "FundsReleased",
      "type": "event"
    },
    {
      "anonymous": false,
      "inputs": [
        {
          "indexed": false,
          "internalType": "uint256",
          "name": "orderId",
          "type": "uint256"
        },
        {
          "indexed": false,
          "internalType": "address",
          "name": "buyer",
          "type": "address"
        },
        {
          "indexed": false,
          "internalType": "address",
          "name": "seller",
          "type": "address"
        }
      ],
      "name": "OrderCanceled",
      "type": "event"
    },
    {
      "anonymous": false,
      "inputs": [
        {
          "indexed": false,
          "internalType": "uint256",
          "name": "orderId",
          "type": "uint256"
        },
        {
          "indexed": false,
          "internalType": "address",
          "name": "buyer",
          "type": "address"
        },
        {
          "indexed": false,
          "internalType": "address",
          "name": "seller",
          "type": "address"
        },
        {
          "indexed": false,
          "internalType": "uint256",
          "name": "price",
          "type": "uint256"
        }
      ],
      "name": "OrderCompleted",
      "type": "event"
    },
    {
      "anonymous": false,
      "inputs": [
        {
          "indexed": false,
          "internalType": "uint256",
          "name": "orderId",
          "type": "uint256"
        },
        {
          "indexed": false,
          "internalType": "address",
          "name": "buyer",
          "type": "address"
        },
        {
          "indexed": false,
          "internalType": "address",
          "name": "seller",
          "type": "address"
        }
      ],
      "name": "OrderDisputed",
      "type": "event"
    },
    {
      "anonymous": false,
      "inputs": [
        {
          "indexed": false,
          "internalType": "uint256",
          "name": "orderId",
          "type": "uint256"
        },
        {
          "indexed": false,
          "internalType": "address",
          "name": "buyer",
          "type": "address"
        },
        {
          "indexed": false,
          "internalType": "address",
          "name": "seller",
          "type": "address"
        },
        {
          "indexed": false,
          "internalType": "uint256",
          "name": "price",
          "type": "uint256"
        }
      ],
      "name": "OrderPlaced",
      "type": "event"
    },
    {
      "inputs": [],
      "name": "RELEASE_DELAY",
      "outputs": [
        {
          "internalType": "uint256",
          "name": "",
          "type": "uint256"
        }
      ],
      "stateMutability": "view",
      "type": "function",
      "constant": true
    },
    {
      "inputs": [],
      "name": "SKILLMESH_FEE_PERCENT",
      "outputs": [
        {
          "internalType": "uint256",
          "name": "",
          "type": "uint256"
        }
      ],
      "stateMutability": "view",
      "type": "function",
      "constant": true
    },
    {
      "inputs": [],
      "name": "orderCount",
      "outputs": [
        {
          "internalType": "uint256",
          "name": "",
          "type": "uint256"
        }
      ],
      "stateMutability": "view",
      "type": "function",
      "constant": true
    },
    {
      "inputs": [
        {
          "internalType": "uint256",
          "name": "",
          "type": "uint256"
        }
      ],
      "name": "orders",
      "outputs": [
        {
          "internalType": "uint256",
          "name": "id",
          "type": "uint256"
        },
        {
          "internalType": "address payable",
          "name": "buyer",
          "type": "address"
        },
        {
          "internalType": "address payable",
          "name": "seller",
          "type": "address"
        },
        {
          "internalType": "string",
          "name": "documentHash",
          "type": "string"
        },
        {
          "internalType": "string",
          "name": "completedFilesHash",
          "type": "string"
        },
        {
          "internalType": "uint256",
          "name": "price",
          "type": "uint256"
        },
        {
          "internalType": "uint256",
          "name": "createdAt",
          "type": "uint256"
        },
        {
          "internalType": "uint256",
          "name": "completedAt",
          "type": "uint256"
        },
        {
          "internalType": "enum DecentralizedPlatform.OrderStatus",
          "name": "status",
          "type": "uint8"
        }
      ],
      "stateMutability": "view",
      "type": "function",
      "constant": true
    },
    {
      "inputs": [],
      "name": "owner",
      "outputs": [
        {
          "internalType": "address",
          "name": "",
          "type": "address"
        }
      ],
      "stateMutability": "view",
      "type": "function",
      "constant": true
    },
    {
      "inputs": [],
      "name": "skillmeshTeam",
      "outputs": [
        {
          "internalType": "address",
          "name": "",
          "type": "address"
        }
      ],
      "stateMutability": "view",
      "type": "function",
      "constant": true
    },
    {
      "inputs": [
        {
          "internalType": "address",
          "name": "",
          "type": "address"
        },
        {
          "internalType": "uint256",
          "name": "",
          "type": "uint256"
        }
      ],
      "name": "userOrders",
      "outputs": [
        {
          "internalType": "uint256",
          "name": "",
          "type": "uint256"
        }
      ],
      "stateMutability": "view",
      "type": "function",
      "constant": true
    },
    {
      "inputs": [
        {
          "internalType": "address",
          "name": "skillmesh",
          "type": "address"
        }
      ],
      "name": "setSkillMeshAddress",
      "outputs": [],
      "stateMutability": "nonpayable",
      "type": "function"
    },
    {
      "inputs": [
        {
          "internalType": "address payable",
          "name": "_seller",
          "type": "address"
        },
        {
          "internalType": "string",
          "name": "_documentHash",
          "type": "string"
        },
        {
          "internalType": "uint256",
          "name": "_price",
          "type": "uint256"
        }
      ],
      "name": "placeOrder",
      "outputs": [],
      "stateMutability": "payable",
      "type": "function",
      "payable": true
    },
    {
      "inputs": [
        {
          "internalType": "uint256",
          "name": "_orderId",
          "type": "uint256"
        }
      ],
      "name": "readyFromSeller",
      "outputs": [],
      "stateMutability": "nonpayable",
      "type": "function"
    },
    {
      "inputs": [
        {
          "internalType": "uint256",
          "name": "_orderId",
          "type": "uint256"
        }
      ],
      "name": "disputeOrder",
      "outputs": [],
      "stateMutability": "nonpayable",
      "type": "function"
    },
    {
      "inputs": [
        {
          "internalType": "uint256",
          "name": "_orderId",
          "type": "uint256"
        }
      ],
      "name": "releaseFunds",
      "outputs": [],
      "stateMutability": "nonpayable",
      "type": "function"
    },
    {
      "inputs": [
        {
          "internalType": "uint256",
          "name": "_orderId",
          "type": "uint256"
        }
      ],
      "name": "refundToBuyer",
      "outputs": [],
      "stateMutability": "nonpayable",
      "type": "function"
    },
    {
      "inputs": [
        {
          "internalType": "uint256",
          "name": "_orderId",
          "type": "uint256"
        }
      ],
      "name": "releaseToSeller",
      "outputs": [],
      "stateMutability": "nonpayable",
      "type": "function"
    },
    {
      "inputs": [
        {
          "internalType": "uint256",
          "name": "_orderId",
          "type": "uint256"
        }
      ],
      "name": "getOrderDetails",
      "outputs": [
        {
          "components": [
            {
              "internalType": "uint256",
              "name": "id",
              "type": "uint256"
            },
            {
              "internalType": "address payable",
              "name": "buyer",
              "type": "address"
            },
            {
              "internalType": "address payable",
              "name": "seller",
              "type": "address"
            },
            {
              "internalType": "string",
              "name": "documentHash",
              "type": "string"
            },
            {
              "internalType": "string",
              "name": "completedFilesHash",
              "type": "string"
            },
            {
              "internalType": "uint256",
              "name": "price",
              "type": "uint256"
            },
            {
              "internalType": "uint256",
              "name": "createdAt",
              "type": "uint256"
            },
            {
              "internalType": "uint256",
              "name": "completedAt",
              "type": "uint256"
            },
            {
              "internalType": "enum DecentralizedPlatform.OrderStatus",
              "name": "status",
              "type": "uint8"
            }
          ],
          "internalType": "struct DecentralizedPlatform.Order",
          "name": "",
          "type": "tuple"
        }
      ],
      "stateMutability": "view",
      "type": "function",
      "constant": true
    },
    {
      "inputs": [
        {
          "internalType": "address",
          "name": "_user",
          "type": "address"
        }
      ],
      "name": "getUserOrders",
      "outputs": [
        {
          "internalType": "uint256[]",
          "name": "",
          "type": "uint256[]"
        }
      ],
      "stateMutability": "view",
      "type": "function",
      "constant": true
    },
    {
      "inputs": [],
      "name": "withdraw",
      "outputs": [],
      "stateMutability": "nonpayable",
      "type": "function"
    }
  ],
  "bytecode": "0x608060405234801561001057600080fd5b50336000806101000a81548173ffffffffffffffffffffffffffffffffffffffff021916908373ffffffffffffffffffffffffffffffffffffffff16021790555060006002819055506124de806100686000396000f3fe6080604052600436106100fe5760003560e01c8063856652e911610095578063a302e23211610064578063a302e232146102fe578063a85c38ef14610329578063b4050fc81461036e578063d8f71d5314610397578063ec7dd7bb146103c2576100fe565b8063856652e9146102425780638da5cb5b1461027f5780638f99528c146102aa578063a09970b2146102d5576100fe565b80633ccfd60b116100d15780633ccfd60b1461019c57806340051ba8146101b35780634d68282f146101dc57806363c69f0814610205576100fe565b80630f05e5a51461010357806321d4209c1461012c5780632453ffa81461014857806333e2331114610173575b600080fd5b34801561010f57600080fd5b5061012a60048036038101906101259190611742565b6103ff565b005b61014660048036038101906101419190611929565b6104d1565b005b34801561015457600080fd5b5061015d610816565b60405161016a91906119a7565b60405180910390f35b34801561017f57600080fd5b5061019a600480360381019061019591906119c2565b61081c565b005b3480156101a857600080fd5b506101b1610947565b005b3480156101bf57600080fd5b506101da60048036038101906101d591906119c2565b610a3e565b005b3480156101e857600080fd5b5061020360048036038101906101fe91906119c2565b610aeb565b005b34801561021157600080fd5b5061022c60048036038101906102279190611742565b610e1c565b6040516102399190611aad565b60405180910390f35b34801561024e57600080fd5b5061026960048036038101906102649190611acf565b610eb3565b60405161027691906119a7565b60405180910390f35b34801561028b57600080fd5b50610294610ee4565b6040516102a19190611b1e565b60405180910390f35b3480156102b657600080fd5b506102bf610f08565b6040516102cc9190611b1e565b60405180910390f35b3480156102e157600080fd5b506102fc60048036038101906102f791906119c2565b610f2e565b005b34801561030a57600080fd5b50610313610fd5565b60405161032091906119a7565b60405180910390f35b34801561033557600080fd5b50610350600480360381019061034b91906119c2565b610fda565b60405161036599989796959493929190611c47565b60405180910390f35b34801561037a57600080fd5b50610395600480360381019061039091906119c2565b611185565b005b3480156103a357600080fd5b506103ac61133d565b6040516103b991906119a7565b60405180910390f35b3480156103ce57600080fd5b506103e960048036038101906103e491906119c2565b611342565b6040516103f69190611e16565b60405180910390f35b60008054906101000a900473ffffffffffffffffffffffffffffffffffffffff1673ffffffffffffffffffffffffffffffffffffffff163373ffffffffffffffffffffffffffffffffffffffff161461048d576040517f08c379a000000000000000000000000000000000000000000000000000000000815260040161048490611eaa565b60405180910390fd5b80600160006101000a81548173ffffffffffffffffffffffffffffffffffffffff021916908373ffffffffffffffffffffffffffffffffffffffff16021790555050565b8273ffffffffffffffffffffffffffffffffffffffff163373ffffffffffffffffffffffffffffffffffffffff160361053f576040517f08c379a000000000000000000000000000000000000000000000000000000000815260040161053690611f3c565b60405180910390fd5b80341015610582576040517f08c379a000000000000000000000000000000000000000000000000000000000815260040161057990611fa8565b60405180910390fd5b6002600081548092919061059590611ff7565b91905055506000600254905060004290506040518061012001604052808381526020013373ffffffffffffffffffffffffffffffffffffffff1681526020018673ffffffffffffffffffffffffffffffffffffffff168152602001858152602001604051806020016040528060008152508152602001848152602001828152602001600081526020016000600481111561063257610631611bd0565b5b815250600360008481526020019081526020016000206000820151816000015560208201518160010160006101000a81548173ffffffffffffffffffffffffffffffffffffffff021916908373ffffffffffffffffffffffffffffffffffffffff16021790555060408201518160020160006101000a81548173ffffffffffffffffffffffffffffffffffffffff021916908373ffffffffffffffffffffffffffffffffffffffff16021790555060608201518160030190805190602001906106fc9291906115a3565b5060808201518160040190805190602001906107199291906115a3565b5060a0820151816005015560c0820151816006015560e082015181600701556101008201518160080160006101000a81548160ff0219169083600481111561076457610763611bd0565b5b0217905550905050600460003373ffffffffffffffffffffffffffffffffffffffff1673ffffffffffffffffffffffffffffffffffffffff1681526020019081526020016000208290806001815401808255809150506001900390600052602060002001600090919091909150557faf03488da094bc08f76858b3b2a0c36a13217c95790c77139137fc6e062ba9cd82338786604051610807949392919061209e565b60405180910390a15050505050565b60025481565b60006003600083815260200190815260200160002090506003600481111561084757610846611bd0565b5b8160080160009054906101000a900460ff16600481111561086b5761086a611bd0565b5b146108ab576040517f08c379a00000000000000000000000000000000000000000000000000000000081526004016108a290612155565b60405180910390fd5b60048160080160006101000a81548160ff021916908360048111156108d3576108d2611bd0565b5b02179055503073ffffffffffffffffffffffffffffffffffffffff16634d68282f836040518263ffffffff1660e01b815260040161091191906119a7565b600060405180830381600087803b15801561092b57600080fd5b505af115801561093f573d6000803e3d6000fd5b505050505050565b60008054906101000a900473ffffffffffffffffffffffffffffffffffffffff1673ffffffffffffffffffffffffffffffffffffffff163373ffffffffffffffffffffffffffffffffffffffff16146109d5576040517f08c379a00000000000000000000000000000000000000000000000000000000081526004016109cc90611eaa565b60405180910390fd5b60008054906101000a900473ffffffffffffffffffffffffffffffffffffffff1673ffffffffffffffffffffffffffffffffffffffff166108fc479081150290604051600060405180830381858888f19350505050158015610a3b573d6000803e3d6000fd5b50565b600060036000838152602001908152602001600020905060018160080160006101000a81548160ff02191690836004811115610a7d57610a7c611bd0565b5b02179055507f5f5cb355147386555ed6155e2bd6562a423da3c8bd426bee54c9b8f286ec7265828260010160009054906101000a900473ffffffffffffffffffffffffffffffffffffffff16338460050154604051610adf9493929190612175565b60405180910390a15050565b60006003600083815260200190815260200160002090508060020160009054906101000a900473ffffffffffffffffffffffffffffffffffffffff1673ffffffffffffffffffffffffffffffffffffffff163373ffffffffffffffffffffffffffffffffffffffff1603610b94576040517f08c379a0000000000000000000000000000000000000000000000000000000008152600401610b8b9061222c565b60405180910390fd5b60016004811115610ba857610ba7611bd0565b5b8160080160009054906101000a900460ff166004811115610bcc57610bcb611bd0565b5b1480610c0d575060036004811115610be757610be6611bd0565b5b8160080160009054906101000a900460ff166004811115610c0b57610c0a611bd0565b5b145b610c4c576040517f08c379a0000000000000000000000000000000000000000000000000000000008152600401610c43906122be565b60405180910390fd5b60048160080160006101000a81548160ff02191690836004811115610c7457610c73611bd0565b5b021790555042816007018190555060008160050154905060006064600583610c9c91906122de565b610ca69190612367565b905060008183610cb69190612398565b90508360020160009054906101000a900473ffffffffffffffffffffffffffffffffffffffff1673ffffffffffffffffffffffffffffffffffffffff166108fc829081150290604051600060405180830381858888f19350505050158015610d22573d6000803e3d6000fd5b50600160009054906101000a900473ffffffffffffffffffffffffffffffffffffffff1673ffffffffffffffffffffffffffffffffffffffff166108fc839081150290604051600060405180830381858888f19350505050158015610d8b573d6000803e3d6000fd5b507fd1b71a0b3286e619e8025f84c24e69b5f58bbced221971eafdf23f3da9502605858560010160009054906101000a900473ffffffffffffffffffffffffffffffffffffffff168660020160009054906101000a900473ffffffffffffffffffffffffffffffffffffffff168760050154604051610e0d94939291906123cc565b60405180910390a15050505050565b6060600460008373ffffffffffffffffffffffffffffffffffffffff1673ffffffffffffffffffffffffffffffffffffffff168152602001908152602001600020805480602002602001604051908101604052809291908181526020018280548015610ea757602002820191906000526020600020905b815481526020019060010190808311610e93575b50505050509050919050565b60046020528160005260406000208181548110610ecf57600080fd5b90600052602060002001600091509150505481565b60008054906101000a900473ffffffffffffffffffffffffffffffffffffffff1681565b600160009054906101000a900473ffffffffffffffffffffffffffffffffffffffff1681565b600060036000838152602001908152602001600020905060038160080160006101000a81548160ff02191690836004811115610f6d57610f6c611bd0565b5b02179055507f11db54667c42cdc1814d1981261a556c4cd342b017dc711d64a598c0200823f982338360020160009054906101000a900473ffffffffffffffffffffffffffffffffffffffff16604051610fc993929190612411565b60405180910390a15050565b600281565b60036020528060005260406000206000915090508060000154908060010160009054906101000a900473ffffffffffffffffffffffffffffffffffffffff16908060020160009054906101000a900473ffffffffffffffffffffffffffffffffffffffff169080600301805461104f90612477565b80601f016020809104026020016040519081016040528092919081815260200182805461107b90612477565b80156110c85780601f1061109d576101008083540402835291602001916110c8565b820191906000526020600020905b8154815290600101906020018083116110ab57829003601f168201915b5050505050908060040180546110dd90612477565b80601f016020809104026020016040519081016040528092919081815260200182805461110990612477565b80156111565780601f1061112b57610100808354040283529160200191611156565b820191906000526020600020905b81548152906001019060200180831161113957829003601f168201915b5050505050908060050154908060060154908060070154908060080160009054906101000a900460ff16905089565b6000600360008381526020019081526020016000209050600360048111156111b0576111af611bd0565b5b8160080160009054906101000a900460ff1660048111156111d4576111d3611bd0565b5b14611214576040517f08c379a000000000000000000000000000000000000000000000000000000000815260040161120b90612155565b60405180910390fd5b60048160080160006101000a81548160ff0219169083600481111561123c5761123b611bd0565b5b02179055508060010160009054906101000a900473ffffffffffffffffffffffffffffffffffffffff1673ffffffffffffffffffffffffffffffffffffffff166108fc82600501549081150290604051600060405180830381858888f193505050501580156112af573d6000803e3d6000fd5b507fd1b71a0b3286e619e8025f84c24e69b5f58bbced221971eafdf23f3da9502605828260010160009054906101000a900473ffffffffffffffffffffffffffffffffffffffff168360020160009054906101000a900473ffffffffffffffffffffffffffffffffffffffff16846005015460405161133194939291906123cc565b60405180910390a15050565b600581565b61134a611629565b6003600083815260200190815260200160002060405180610120016040529081600082015481526020016001820160009054906101000a900473ffffffffffffffffffffffffffffffffffffffff1673ffffffffffffffffffffffffffffffffffffffff1673ffffffffffffffffffffffffffffffffffffffff1681526020016002820160009054906101000a900473ffffffffffffffffffffffffffffffffffffffff1673ffffffffffffffffffffffffffffffffffffffff1673ffffffffffffffffffffffffffffffffffffffff16815260200160038201805461142f90612477565b80601f016020809104026020016040519081016040528092919081815260200182805461145b90612477565b80156114a85780601f1061147d576101008083540402835291602001916114a8565b820191906000526020600020905b81548152906001019060200180831161148b57829003601f168201915b505050505081526020016004820180546114c190612477565b80601f01602080910402602001604051908101604052809291908181526020018280546114ed90612477565b801561153a5780601f1061150f5761010080835404028352916020019161153a565b820191906000526020600020905b81548152906001019060200180831161151d57829003601f168201915b505050505081526020016005820154815260200160068201548152602001600782015481526020016008820160009054906101000a900460ff16600481111561158657611585611bd0565b5b600481111561159857611597611bd0565b5b815250509050919050565b8280546115af90612477565b90600052602060002090601f0160209004810192826115d15760008555611618565b82601f106115ea57805160ff1916838001178555611618565b82800160010185558215611618579182015b828111156116175782518255916020019190600101906115fc565b5b50905061162591906116b3565b5090565b60405180610120016040528060008152602001600073ffffffffffffffffffffffffffffffffffffffff168152602001600073ffffffffffffffffffffffffffffffffffffffff1681526020016060815260200160608152602001600081526020016000815260200160008152602001600060048111156116ad576116ac611bd0565b5b81525090565b5b808211156116cc5760008160009055506001016116b4565b5090565b6000604051905090565b600080fd5b600080fd5b600073ffffffffffffffffffffffffffffffffffffffff82169050919050565b600061170f826116e4565b9050919050565b61171f81611704565b811461172a57600080fd5b50565b60008135905061173c81611716565b92915050565b600060208284031215611758576117576116da565b5b60006117668482850161172d565b91505092915050565b600061177a826116e4565b9050919050565b61178a8161176f565b811461179557600080fd5b50565b6000813590506117a781611781565b92915050565b600080fd5b600080fd5b6000601f19601f8301169050919050565b7f4e487b7100000000000000000000000000000000000000000000000000000000600052604160045260246000fd5b611800826117b7565b810181811067ffffffffffffffff8211171561181f5761181e6117c8565b5b80604052505050565b60006118326116d0565b905061183e82826117f7565b919050565b600067ffffffffffffffff82111561185e5761185d6117c8565b5b611867826117b7565b9050602081019050919050565b82818337600083830152505050565b600061189661189184611843565b611828565b9050828152602081018484840111156118b2576118b16117b2565b5b6118bd848285611874565b509392505050565b600082601f8301126118da576118d96117ad565b5b81356118ea848260208601611883565b91505092915050565b6000819050919050565b611906816118f3565b811461191157600080fd5b50565b600081359050611923816118fd565b92915050565b600080600060608486031215611942576119416116da565b5b600061195086828701611798565b935050602084013567ffffffffffffffff811115611971576119706116df565b5b61197d868287016118c5565b925050604061198e86828701611914565b9150509250925092565b6119a1816118f3565b82525050565b60006020820190506119bc6000830184611998565b92915050565b6000602082840312156119d8576119d76116da565b5b60006119e684828501611914565b91505092915050565b600081519050919050565b600082825260208201905092915050565b6000819050602082019050919050565b611a24816118f3565b82525050565b6000611a368383611a1b565b60208301905092915050565b6000602082019050919050565b6000611a5a826119ef565b611a6481856119fa565b9350611a6f83611a0b565b8060005b83811015611aa0578151611a878882611a2a565b9750611a9283611a42565b925050600181019050611a73565b5085935050505092915050565b60006020820190508181036000830152611ac78184611a4f565b905092915050565b60008060408385031215611ae657611ae56116da565b5b6000611af48582860161172d565b9250506020611b0585828601611914565b9150509250929050565b611b1881611704565b82525050565b6000602082019050611b336000830184611b0f565b92915050565b611b428161176f565b82525050565b600081519050919050565b600082825260208201905092915050565b60005b83811015611b82578082015181840152602081019050611b67565b83811115611b91576000848401525b50505050565b6000611ba282611b48565b611bac8185611b53565b9350611bbc818560208601611b64565b611bc5816117b7565b840191505092915050565b7f4e487b7100000000000000000000000000000000000000000000000000000000600052602160045260246000fd5b60058110611c1057611c0f611bd0565b5b50565b6000819050611c2182611bff565b919050565b6000611c3182611c13565b9050919050565b611c4181611c26565b82525050565b600061012082019050611c5d600083018c611998565b611c6a602083018b611b39565b611c77604083018a611b39565b8181036060830152611c898189611b97565b90508181036080830152611c9d8188611b97565b9050611cac60a0830187611998565b611cb960c0830186611998565b611cc660e0830185611998565b611cd4610100830184611c38565b9a9950505050505050505050565b611ceb8161176f565b82525050565b600082825260208201905092915050565b6000611d0d82611b48565b611d178185611cf1565b9350611d27818560208601611b64565b611d30816117b7565b840191505092915050565b611d4481611c26565b82525050565b600061012083016000830151611d636000860182611a1b565b506020830151611d766020860182611ce2565b506040830151611d896040860182611ce2565b5060608301518482036060860152611da18282611d02565b91505060808301518482036080860152611dbb8282611d02565b91505060a0830151611dd060a0860182611a1b565b5060c0830151611de360c0860182611a1b565b5060e0830151611df660e0860182611a1b565b50610100830151611e0b610100860182611d3b565b508091505092915050565b60006020820190508181036000830152611e308184611d4a565b905092915050565b7f4f6e6c79206f776e65722063616e2063616c6c20746869732066756e6374696f60008201527f6e00000000000000000000000000000000000000000000000000000000000000602082015250565b6000611e94602183611b53565b9150611e9f82611e38565b604082019050919050565b60006020820190508181036000830152611ec381611e87565b9050919050565b7f42757965722063616e6e6f74206265207468652073616d652061732073656c6c60008201527f6572000000000000000000000000000000000000000000000000000000000000602082015250565b6000611f26602283611b53565b9150611f3182611eca565b604082019050919050565b60006020820190508181036000830152611f5581611f19565b9050919050565b7f496e73756666696369656e74207061796d656e7420616d6f756e740000000000600082015250565b6000611f92601b83611b53565b9150611f9d82611f5c565b602082019050919050565b60006020820190508181036000830152611fc181611f85565b9050919050565b7f4e487b7100000000000000000000000000000000000000000000000000000000600052601160045260246000fd5b6000612002826118f3565b91507fffffffffffffffffffffffffffffffffffffffffffffffffffffffffffffffff820361203457612033611fc8565b5b600182019050919050565b6000819050919050565b600061206461205f61205a846116e4565b61203f565b6116e4565b9050919050565b600061207682612049565b9050919050565b60006120888261206b565b9050919050565b6120988161207d565b82525050565b60006080820190506120b36000830187611998565b6120c06020830186611b0f565b6120cd604083018561208f565b6120da6060830184611998565b95945050505050565b7f4f72646572206973206e6f7420696e20612076616c696420737461746520666f60008201527f722072656c656173650000000000000000000000000000000000000000000000602082015250565b600061213f602983611b53565b915061214a826120e3565b604082019050919050565b6000602082019050818103600083015261216e81612132565b9050919050565b600060808201905061218a6000830187611998565b612197602083018661208f565b6121a46040830185611b0f565b6121b16060830184611998565b95945050505050565b7f4f6e6c792073656c6c65722063616e20636f6d706c65746520746865206f726460008201527f6572000000000000000000000000000000000000000000000000000000000000602082015250565b6000612216602283611b53565b9150612221826121ba565b604082019050919050565b6000602082019050818103600083015261224581612209565b9050919050565b7f4f72646572206973206e6f7420696e20612076616c696420737461746520666f60008201527f7220636f6d706c6574696f6e0000000000000000000000000000000000000000602082015250565b60006122a8602c83611b53565b91506122b38261224c565b604082019050919050565b600060208201905081810360008301526122d78161229b565b9050919050565b60006122e9826118f3565b91506122f4836118f3565b9250817fffffffffffffffffffffffffffffffffffffffffffffffffffffffffffffffff048311821515161561232d5761232c611fc8565b5b828202905092915050565b7f4e487b7100000000000000000000000000000000000000000000000000000000600052601260045260246000fd5b6000612372826118f3565b915061237d836118f3565b92508261238d5761238c612338565b5b828204905092915050565b60006123a3826118f3565b91506123ae836118f3565b9250828210156123c1576123c0611fc8565b5b828203905092915050565b60006080820190506123e16000830187611998565b6123ee602083018661208f565b6123fb604083018561208f565b6124086060830184611998565b95945050505050565b60006060820190506124266000830186611998565b6124336020830185611b0f565b612440604083018461208f565b949350505050565b7f4e487b7100000000000000000000000000000000000000000000000000000000600052602260045260246000fd5b6000600282049050600182168061248f57607f821691505b6020821081036124a2576124a1612448565b5b5091905056fea2646970667358221220b409e3fd70190fefe72afbe34da9b0237762359cf3d9146ce2e4d0092d5f316164736f6c634300080d0033",
  "immutableReferences": {},
  "source": "// SPDX-License-Identifier: MIT\r\npragma solidity ^0.8.0;\r\n\r\ncontract DecentralizedPlatform {\r\n    address public owner;\r\n    address public skillmeshTeam;\r\n    uint public orderCount;\r\n    uint public constant RELEASE_DELAY = 2;\r\n    uint public constant SKILLMESH_FEE_PERCENT = 5;\r\n\r\n    enum OrderStatus { Created, AmountPending, Completed, Disputed, FundsReleased }\r\n\r\n    struct Order {\r\n        uint id;\r\n        address payable buyer;\r\n        address payable seller;\r\n        string documentHash;\r\n        string completedFilesHash;\r\n        uint price;\r\n        uint createdAt;\r\n        uint completedAt;\r\n        OrderStatus status;\r\n    }\r\n\r\n    mapping(uint => Order) public orders;\r\n    mapping(address => uint[]) public userOrders;\r\n\r\n    event OrderPlaced(uint orderId, address buyer, address seller, uint price);\r\n    event OrderCompleted(uint orderId, address buyer, address seller, uint price);\r\n    event AmountPending(uint orderId, address buyer, address seller, uint price);\r\n    event OrderDisputed(uint orderId, address buyer, address seller);\r\n    event OrderCanceled(uint orderId, address buyer, address seller);\r\n    event FundsReleased(uint orderId, address recipient, uint amount);\r\n\r\n    constructor() {\r\n        owner = msg.sender;\r\n        orderCount = 0;\r\n    }\r\n\r\n    modifier onlyOwner() {\r\n        require(msg.sender == owner, \"Only owner can call this function\");\r\n        _;\r\n    }\r\n\r\nfunction setSkillMeshAddress(address skillmesh) external onlyOwner {\r\n  skillmeshTeam = skillmesh;\r\n}\r\n\r\n    function placeOrder(address payable _seller, string memory _documentHash, uint _price) external payable {\r\n        require(msg.sender != _seller, \"Buyer cannot be the same as seller\");\r\n        require(msg.value >= _price, \"Insufficient payment amount\");\r\n\r\n        orderCount++;\r\n        uint orderId = orderCount;\r\n        uint currentTime = block.timestamp;\r\n\r\n        orders[orderId] = Order(orderId, payable(msg.sender), _seller, _documentHash, \"\", _price, currentTime, 0, OrderStatus.Created);\r\n        userOrders[msg.sender].push(orderId);\r\n\r\n        emit OrderPlaced(orderId, msg.sender, _seller, _price);\r\n    }\r\n\r\n    function readyFromSeller(uint _orderId) external {\r\n        Order storage order = orders[_orderId];\r\n        order.status = OrderStatus.AmountPending;\r\n\r\n        emit AmountPending(_orderId, order.buyer, msg.sender, order.price);\r\n    }\r\n\r\n    function disputeOrder(uint _orderId) external {\r\n        Order storage order = orders[_orderId];\r\n        order.status = OrderStatus.Disputed;\r\n\r\n        emit OrderDisputed(_orderId, msg.sender, order.seller);\r\n    }\r\n\r\n    function releaseFunds(uint _orderId) external {\r\n        Order storage order = orders[_orderId];\r\n        require(msg.sender != order.seller, \"Only seller can complete the order\");\r\n        require(order.status == OrderStatus.AmountPending || order.status == OrderStatus.Disputed, \"Order is not in a valid state for completion\");\r\n\r\n        order.status = OrderStatus.FundsReleased;\r\n        order.completedAt = block.timestamp;\r\n\r\n        // Calculate amount to transfer to seller after deducting Skillmesh fee\r\n        uint amountToSeller = order.price;\r\n        uint feeAmount = (amountToSeller * SKILLMESH_FEE_PERCENT) / 100;\r\n        uint finalAmountToSeller = amountToSeller - feeAmount;\r\n\r\n        // Transfer funds to seller\r\n        payable(order.seller).transfer(finalAmountToSeller);\r\n\r\n        // Transfer fee to Skillmesh team\r\n        payable(skillmeshTeam).transfer(feeAmount);\r\n\r\n        emit OrderCompleted(_orderId, order.buyer, order.seller, order.price);\r\n    }\r\n\r\n    function refundToBuyer(uint _orderId) external {\r\n        Order storage order = orders[_orderId];\r\n        require(order.status == OrderStatus.Disputed, \"Order is not in a valid state for release\");\r\n\r\n        order.status = OrderStatus.FundsReleased;\r\n\r\n        // Refund the buyer\r\n        payable(order.buyer).transfer(order.price);\r\n\r\n        emit OrderCompleted(_orderId, order.buyer, order.seller, order.price);\r\n    }\r\n\r\n    function releaseToSeller(uint _orderId) external {\r\n        Order storage order = orders[_orderId];\r\n        require(order.status == OrderStatus.Disputed, \"Order is not in a valid state for release\");\r\n\r\n        order.status = OrderStatus.FundsReleased;\r\n\r\n        this.releaseFunds(_orderId);\r\n    }\r\n\r\n    function getOrderDetails(uint _orderId) external view returns (Order memory) {\r\n        return orders[_orderId];\r\n    }\r\n\r\n    function getUserOrders(address _user) external view returns (uint[] memory) {\r\n        return userOrders[_user];\r\n    }\r\n\r\n    function withdraw() external onlyOwner {\r\n        payable(owner).transfer(address(this).balance);\r\n    }\r\n}",
  "sourcePath": "E:\\SkillMesh\\smartContract\\contracts\\SkillmeshContract.sol",
  "compiler": {
    "name": "solc",
    "version": "0.8.13+commit.abaa5c0e.Emscripten.clang"
  },
  "schemaVersion": "3.4.16",
  "updatedAt": "2024-05-01T15:16:21.608Z",
  "networkType": "ethereum",
  "devdoc": {
    "kind": "dev",
    "methods": {},
    "version": 1
  },
  "userdoc": {
    "kind": "user",
    "methods": {},
    "version": 1
  }
}