{
  "contractName": "DecentralizedPlatform",
  "abi": [
    {
      "inputs": [],
      "stateMutability": "nonpayable",
      "type": "constructor"
    },
    {
      "anonymous": false,
      "inputs": [
        {
          "indexed": false,
          "internalType": "uint256",
          "name": "orderId",
          "type": "uint256"
        },
        {
          "indexed": false,
          "internalType": "address",
          "name": "buyer",
          "type": "address"
        },
        {
          "indexed": false,
          "internalType": "address",
          "name": "seller",
          "type": "address"
        },
        {
          "indexed": false,
          "internalType": "uint256",
          "name": "price",
          "type": "uint256"
        }
      ],
      "name": "AmountPending",
      "type": "event"
    },
    {
      "anonymous": false,
      "inputs": [
        {
          "indexed": false,
          "internalType": "uint256",
          "name": "orderId",
          "type": "uint256"
        },
        {
          "indexed": false,
          "internalType": "address",
          "name": "recipient",
          "type": "address"
        },
        {
          "indexed": false,
          "internalType": "uint256",
          "name": "amount",
          "type": "uint256"
        }
      ],
      "name": "FundsReleased",
      "type": "event"
    },
    {
      "anonymous": false,
      "inputs": [
        {
          "indexed": false,
          "internalType": "uint256",
          "name": "orderId",
          "type": "uint256"
        },
        {
          "indexed": false,
          "internalType": "address",
          "name": "buyer",
          "type": "address"
        },
        {
          "indexed": false,
          "internalType": "address",
          "name": "seller",
          "type": "address"
        }
      ],
      "name": "OrderCanceled",
      "type": "event"
    },
    {
      "anonymous": false,
      "inputs": [
        {
          "indexed": false,
          "internalType": "uint256",
          "name": "orderId",
          "type": "uint256"
        },
        {
          "indexed": false,
          "internalType": "address",
          "name": "buyer",
          "type": "address"
        },
        {
          "indexed": false,
          "internalType": "address",
          "name": "seller",
          "type": "address"
        },
        {
          "indexed": false,
          "internalType": "uint256",
          "name": "price",
          "type": "uint256"
        }
      ],
      "name": "OrderCompleted",
      "type": "event"
    },
    {
      "anonymous": false,
      "inputs": [
        {
          "indexed": false,
          "internalType": "uint256",
          "name": "orderId",
          "type": "uint256"
        },
        {
          "indexed": false,
          "internalType": "address",
          "name": "buyer",
          "type": "address"
        },
        {
          "indexed": false,
          "internalType": "address",
          "name": "seller",
          "type": "address"
        }
      ],
      "name": "OrderDisputed",
      "type": "event"
    },
    {
      "anonymous": false,
      "inputs": [
        {
          "indexed": false,
          "internalType": "uint256",
          "name": "orderId",
          "type": "uint256"
        },
        {
          "indexed": false,
          "internalType": "address",
          "name": "buyer",
          "type": "address"
        },
        {
          "indexed": false,
          "internalType": "address",
          "name": "seller",
          "type": "address"
        },
        {
          "indexed": false,
          "internalType": "uint256",
          "name": "price",
          "type": "uint256"
        },
        {
          "indexed": false,
          "internalType": "string",
          "name": "_gigId",
          "type": "string"
        }
      ],
      "name": "OrderPlaced",
      "type": "event"
    },
    {
      "inputs": [],
      "name": "RELEASE_DELAY",
      "outputs": [
        {
          "internalType": "uint256",
          "name": "",
          "type": "uint256"
        }
      ],
      "stateMutability": "view",
      "type": "function",
      "constant": true
    },
    {
      "inputs": [],
      "name": "SKILLMESH_FEE_PERCENT",
      "outputs": [
        {
          "internalType": "uint256",
          "name": "",
          "type": "uint256"
        }
      ],
      "stateMutability": "view",
      "type": "function",
      "constant": true
    },
    {
      "inputs": [
        {
          "internalType": "uint256",
          "name": "",
          "type": "uint256"
        }
      ],
      "name": "orders",
      "outputs": [
        {
          "internalType": "uint256",
          "name": "id",
          "type": "uint256"
        },
        {
          "internalType": "address payable",
          "name": "buyer",
          "type": "address"
        },
        {
          "internalType": "address payable",
          "name": "seller",
          "type": "address"
        },
        {
          "internalType": "string",
          "name": "gigId",
          "type": "string"
        },
        {
          "internalType": "uint256",
          "name": "price",
          "type": "uint256"
        },
        {
          "internalType": "uint256",
          "name": "createdAt",
          "type": "uint256"
        },
        {
          "internalType": "uint256",
          "name": "completedAt",
          "type": "uint256"
        },
        {
          "internalType": "enum DecentralizedPlatform.OrderStatus",
          "name": "status",
          "type": "uint8"
        }
      ],
      "stateMutability": "view",
      "type": "function",
      "constant": true
    },
    {
      "inputs": [],
      "name": "owner",
      "outputs": [
        {
          "internalType": "address",
          "name": "",
          "type": "address"
        }
      ],
      "stateMutability": "view",
      "type": "function",
      "constant": true
    },
    {
      "inputs": [],
      "name": "skillmeshTeam",
      "outputs": [
        {
          "internalType": "address",
          "name": "",
          "type": "address"
        }
      ],
      "stateMutability": "view",
      "type": "function",
      "constant": true
    },
    {
      "inputs": [
        {
          "internalType": "address",
          "name": "",
          "type": "address"
        },
        {
          "internalType": "uint256",
          "name": "",
          "type": "uint256"
        }
      ],
      "name": "userOrders",
      "outputs": [
        {
          "internalType": "uint256",
          "name": "",
          "type": "uint256"
        }
      ],
      "stateMutability": "view",
      "type": "function",
      "constant": true
    },
    {
      "inputs": [
        {
          "internalType": "address",
          "name": "_skillmesh",
          "type": "address"
        }
      ],
      "name": "setSkillMeshAddress",
      "outputs": [],
      "stateMutability": "nonpayable",
      "type": "function"
    },
    {
      "inputs": [
        {
          "internalType": "address payable",
          "name": "_seller",
          "type": "address"
        },
        {
          "internalType": "string",
          "name": "_gigId",
          "type": "string"
        },
        {
          "internalType": "uint256",
          "name": "_price",
          "type": "uint256"
        }
      ],
      "name": "placeOrder",
      "outputs": [],
      "stateMutability": "payable",
      "type": "function",
      "payable": true
    },
    {
      "inputs": [
        {
          "internalType": "uint256",
          "name": "_orderId",
          "type": "uint256"
        }
      ],
      "name": "readyFromSeller",
      "outputs": [],
      "stateMutability": "nonpayable",
      "type": "function"
    }
  ],
  "bytecode": "0x608060405234801561001057600080fd5b50336000806101000a81548173ffffffffffffffffffffffffffffffffffffffff021916908373ffffffffffffffffffffffffffffffffffffffff16021790555061105e806100606000396000f3fe6080604052600436106100865760003560e01c80638da5cb5b116100595780638da5cb5b146101365780638f99528c14610161578063a302e2321461018c578063a85c38ef146101b7578063d8f71d53146101fb57610086565b80630f05e5a51461008b57806321d4209c146100b457806340051ba8146100d0578063856652e9146100f9575b600080fd5b34801561009757600080fd5b506100b260048036038101906100ad91906108fc565b610226565b005b6100ce60048036038101906100c99190610ae3565b6102f8565b005b3480156100dc57600080fd5b506100f760048036038101906100f29190610b52565b610579565b005b34801561010557600080fd5b50610120600480360381019061011b9190610b7f565b610635565b60405161012d9190610bce565b60405180910390f35b34801561014257600080fd5b5061014b610666565b6040516101589190610bf8565b60405180910390f35b34801561016d57600080fd5b5061017661068a565b6040516101839190610bf8565b60405180910390f35b34801561019857600080fd5b506101a16106b0565b6040516101ae9190610bce565b60405180910390f35b3480156101c357600080fd5b506101de60048036038101906101d99190610b52565b6106b5565b6040516101f2989796959493929190610d21565b60405180910390f35b34801561020757600080fd5b506102106107e2565b60405161021d9190610bce565b60405180910390f35b60008054906101000a900473ffffffffffffffffffffffffffffffffffffffff1673ffffffffffffffffffffffffffffffffffffffff163373ffffffffffffffffffffffffffffffffffffffff16146102b4576040517f08c379a00000000000000000000000000000000000000000000000000000000081526004016102ab90610e18565b60405180910390fd5b80600160006101000a81548173ffffffffffffffffffffffffffffffffffffffff021916908373ffffffffffffffffffffffffffffffffffffffff16021790555050565b6000429050600260405180610100016040528060028054905081526020013373ffffffffffffffffffffffffffffffffffffffff1681526020018673ffffffffffffffffffffffffffffffffffffffff168152602001858152602001848152602001838152602001600081526020016000600481111561037b5761037a610caa565b5b81525090806001815401808255809150506001900390600052602060002090600802016000909190919091506000820151816000015560208201518160010160006101000a81548173ffffffffffffffffffffffffffffffffffffffff021916908373ffffffffffffffffffffffffffffffffffffffff16021790555060408201518160020160006101000a81548173ffffffffffffffffffffffffffffffffffffffff021916908373ffffffffffffffffffffffffffffffffffffffff160217905550606082015181600301908051906020019061045b9291906107e7565b506080820151816004015560a0820151816005015560c0820151816006015560e08201518160070160006101000a81548160ff021916908360048111156104a5576104a4610caa565b5b02179055505050600360003373ffffffffffffffffffffffffffffffffffffffff1673ffffffffffffffffffffffffffffffffffffffff16815260200190815260200160002060016002805490506104fd9190610e67565b90806001815401808255809150506001900390600052602060002001600090919091909150557fb1147f852fc43e7f848e0139b512feb6ad9e1b0c47d4071cc28af776ebeac77d60016002805490506105569190610e67565b3386858760405161056b959493929190610efa565b60405180910390a150505050565b60006002828154811061058f5761058e610f54565b5b9060005260206000209060080201905060018160070160006101000a81548160ff021916908360048111156105c7576105c6610caa565b5b02179055507f5f5cb355147386555ed6155e2bd6562a423da3c8bd426bee54c9b8f286ec7265828260010160009054906101000a900473ffffffffffffffffffffffffffffffffffffffff163384600401546040516106299493929190610f83565b60405180910390a15050565b6003602052816000526040600020818154811061065157600080fd5b90600052602060002001600091509150505481565b60008054906101000a900473ffffffffffffffffffffffffffffffffffffffff1681565b600160009054906101000a900473ffffffffffffffffffffffffffffffffffffffff1681565b600281565b600281815481106106c557600080fd5b90600052602060002090600802016000915090508060000154908060010160009054906101000a900473ffffffffffffffffffffffffffffffffffffffff16908060020160009054906101000a900473ffffffffffffffffffffffffffffffffffffffff169080600301805461073a90610ff7565b80601f016020809104026020016040519081016040528092919081815260200182805461076690610ff7565b80156107b35780601f10610788576101008083540402835291602001916107b3565b820191906000526020600020905b81548152906001019060200180831161079657829003601f168201915b5050505050908060040154908060050154908060060154908060070160009054906101000a900460ff16905088565b600581565b8280546107f390610ff7565b90600052602060002090601f016020900481019282610815576000855561085c565b82601f1061082e57805160ff191683800117855561085c565b8280016001018555821561085c579182015b8281111561085b578251825591602001919060010190610840565b5b509050610869919061086d565b5090565b5b8082111561088657600081600090555060010161086e565b5090565b6000604051905090565b600080fd5b600080fd5b600073ffffffffffffffffffffffffffffffffffffffff82169050919050565b60006108c98261089e565b9050919050565b6108d9816108be565b81146108e457600080fd5b50565b6000813590506108f6816108d0565b92915050565b60006020828403121561091257610911610894565b5b6000610920848285016108e7565b91505092915050565b60006109348261089e565b9050919050565b61094481610929565b811461094f57600080fd5b50565b6000813590506109618161093b565b92915050565b600080fd5b600080fd5b6000601f19601f8301169050919050565b7f4e487b7100000000000000000000000000000000000000000000000000000000600052604160045260246000fd5b6109ba82610971565b810181811067ffffffffffffffff821117156109d9576109d8610982565b5b80604052505050565b60006109ec61088a565b90506109f882826109b1565b919050565b600067ffffffffffffffff821115610a1857610a17610982565b5b610a2182610971565b9050602081019050919050565b82818337600083830152505050565b6000610a50610a4b846109fd565b6109e2565b905082815260208101848484011115610a6c57610a6b61096c565b5b610a77848285610a2e565b509392505050565b600082601f830112610a9457610a93610967565b5b8135610aa4848260208601610a3d565b91505092915050565b6000819050919050565b610ac081610aad565b8114610acb57600080fd5b50565b600081359050610add81610ab7565b92915050565b600080600060608486031215610afc57610afb610894565b5b6000610b0a86828701610952565b935050602084013567ffffffffffffffff811115610b2b57610b2a610899565b5b610b3786828701610a7f565b9250506040610b4886828701610ace565b9150509250925092565b600060208284031215610b6857610b67610894565b5b6000610b7684828501610ace565b91505092915050565b60008060408385031215610b9657610b95610894565b5b6000610ba4858286016108e7565b9250506020610bb585828601610ace565b9150509250929050565b610bc881610aad565b82525050565b6000602082019050610be36000830184610bbf565b92915050565b610bf2816108be565b82525050565b6000602082019050610c0d6000830184610be9565b92915050565b610c1c81610929565b82525050565b600081519050919050565b600082825260208201905092915050565b60005b83811015610c5c578082015181840152602081019050610c41565b83811115610c6b576000848401525b50505050565b6000610c7c82610c22565b610c868185610c2d565b9350610c96818560208601610c3e565b610c9f81610971565b840191505092915050565b7f4e487b7100000000000000000000000000000000000000000000000000000000600052602160045260246000fd5b60058110610cea57610ce9610caa565b5b50565b6000819050610cfb82610cd9565b919050565b6000610d0b82610ced565b9050919050565b610d1b81610d00565b82525050565b600061010082019050610d37600083018b610bbf565b610d44602083018a610c13565b610d516040830189610c13565b8181036060830152610d638188610c71565b9050610d726080830187610bbf565b610d7f60a0830186610bbf565b610d8c60c0830185610bbf565b610d9960e0830184610d12565b9998505050505050505050565b7f4f6e6c79206f776e65722063616e2063616c6c20746869732066756e6374696f60008201527f6e00000000000000000000000000000000000000000000000000000000000000602082015250565b6000610e02602183610c2d565b9150610e0d82610da6565b604082019050919050565b60006020820190508181036000830152610e3181610df5565b9050919050565b7f4e487b7100000000000000000000000000000000000000000000000000000000600052601160045260246000fd5b6000610e7282610aad565b9150610e7d83610aad565b925082821015610e9057610e8f610e38565b5b828203905092915050565b6000819050919050565b6000610ec0610ebb610eb68461089e565b610e9b565b61089e565b9050919050565b6000610ed282610ea5565b9050919050565b6000610ee482610ec7565b9050919050565b610ef481610ed9565b82525050565b600060a082019050610f0f6000830188610bbf565b610f1c6020830187610be9565b610f296040830186610eeb565b610f366060830185610bbf565b8181036080830152610f488184610c71565b90509695505050505050565b7f4e487b7100000000000000000000000000000000000000000000000000000000600052603260045260246000fd5b6000608082019050610f986000830187610bbf565b610fa56020830186610eeb565b610fb26040830185610be9565b610fbf6060830184610bbf565b95945050505050565b7f4e487b7100000000000000000000000000000000000000000000000000000000600052602260045260246000fd5b6000600282049050600182168061100f57607f821691505b60208210810361102257611021610fc8565b5b5091905056fea264697066735822122017e374631ae81ff5037195961035be4fd27f84a58d09b4fb8881c31ac78de65664736f6c634300080d0033",
  "immutableReferences": {},
  "source": "// SPDX-License-Identifier: MIT\r\npragma solidity ^0.8.0;\r\n\r\ncontract DecentralizedPlatform {\r\n    address public owner;\r\n    address public skillmeshTeam;\r\n    uint public constant RELEASE_DELAY = 2;\r\n    uint public constant SKILLMESH_FEE_PERCENT = 5;\r\n\r\n    enum OrderStatus {\r\n        Created,\r\n        AmountPending,\r\n        Completed,\r\n        Disputed,\r\n        FundsReleased\r\n    }\r\n\r\n    struct Order {\r\n        uint id;\r\n        address payable buyer;\r\n        address payable seller;\r\n        string gigId;\r\n        uint price;\r\n        uint createdAt;\r\n        uint completedAt;\r\n        OrderStatus status;\r\n    }\r\n\r\n    Order[] public orders;\r\n    mapping(address => uint[]) public userOrders;\r\n\r\n    event OrderPlaced(\r\n        uint orderId,\r\n        address buyer,\r\n        address seller,\r\n        uint price,\r\n        string _gigId\r\n    );\r\n    event OrderCompleted(\r\n        uint orderId,\r\n        address buyer,\r\n        address seller,\r\n        uint price\r\n    );\r\n    event AmountPending(\r\n        uint orderId,\r\n        address buyer,\r\n        address seller,\r\n        uint price\r\n    );\r\n    event OrderDisputed(uint orderId, address buyer, address seller);\r\n    event OrderCanceled(uint orderId, address buyer, address seller);\r\n    event FundsReleased(uint orderId, address recipient, uint amount);\r\n\r\n    constructor() {\r\n        owner = msg.sender;\r\n    }\r\n\r\n    modifier onlyOwner() {\r\n        require(msg.sender == owner, \"Only owner can call this function\");\r\n        _;\r\n    }\r\n\r\n    function setSkillMeshAddress(address _skillmesh) external onlyOwner {\r\n        skillmeshTeam = _skillmesh;\r\n    }\r\n\r\n    function placeOrder(\r\n        address payable _seller,\r\n        string memory _gigId,\r\n        uint _price\r\n    ) external payable {\r\n        uint currentTime = block.timestamp;\r\n\r\n        orders.push(Order({\r\n            id: orders.length,\r\n            buyer: payable(msg.sender),\r\n            seller: _seller,\r\n            gigId: _gigId,\r\n            price: _price,\r\n            createdAt: currentTime,\r\n            completedAt: 0,\r\n            status: OrderStatus.Created\r\n        }));\r\n\r\n        userOrders[msg.sender].push(orders.length - 1);\r\n\r\n        emit OrderPlaced(orders.length - 1, msg.sender, _seller, _price, _gigId);\r\n    }\r\n\r\n    function readyFromSeller(uint _orderId) external {\r\n        Order storage order = orders[_orderId];\r\n        order.status = OrderStatus.AmountPending;\r\n\r\n        emit AmountPending(_orderId, order.buyer, msg.sender, order.price);\r\n    }\r\n}\r\n\r\n",
  "sourcePath": "E:\\SkillMesh\\smartContract\\contracts\\SkillmeshContract.sol",
  "compiler": {
    "name": "solc",
    "version": "0.8.13+commit.abaa5c0e.Emscripten.clang"
  },
  "schemaVersion": "3.4.16",
  "updatedAt": "2024-06-02T06:38:14.375Z",
  "networkType": "ethereum",
  "devdoc": {
    "kind": "dev",
    "methods": {},
    "version": 1
  },
  "userdoc": {
    "kind": "user",
    "methods": {},
    "version": 1
  }
}